{
  "abi": [
    {
      "inputs": [
        {
          "internalType": "string",
          "name": "name_",
          "type": "string"
        },
        {
          "internalType": "string",
          "name": "symbol_",
          "type": "string"
        }
      ],
      "stateMutability": "nonpayable",
      "type": "constructor"
    },
    {
      "anonymous": false,
      "inputs": [
        {
          "indexed": true,
          "internalType": "address",
          "name": "owner",
          "type": "address"
        },
        {
          "indexed": true,
          "internalType": "address",
          "name": "approved",
          "type": "address"
        },
        {
          "indexed": true,
          "internalType": "uint256",
          "name": "tokenId",
          "type": "uint256"
        }
      ],
      "name": "Approval",
      "type": "event"
    },
    {
      "anonymous": false,
      "inputs": [
        {
          "indexed": true,
          "internalType": "address",
          "name": "owner",
          "type": "address"
        },
        {
          "indexed": true,
          "internalType": "address",
          "name": "operator",
          "type": "address"
        },
        {
          "indexed": false,
          "internalType": "bool",
          "name": "approved",
          "type": "bool"
        }
      ],
      "name": "ApprovalForAll",
      "type": "event"
    },
    {
      "anonymous": false,
      "inputs": [
        {
          "indexed": true,
          "internalType": "address",
          "name": "from",
          "type": "address"
        },
        {
          "indexed": true,
          "internalType": "address",
          "name": "to",
          "type": "address"
        },
        {
          "indexed": true,
          "internalType": "uint256",
          "name": "tokenId",
          "type": "uint256"
        }
      ],
      "name": "Transfer",
      "type": "event"
    },
    {
      "inputs": [
        {
          "internalType": "address",
          "name": "to",
          "type": "address"
        },
        {
          "internalType": "uint256",
          "name": "tokenId",
          "type": "uint256"
        }
      ],
      "name": "approve",
      "outputs": [],
      "stateMutability": "nonpayable",
      "type": "function"
    },
    {
      "inputs": [
        {
          "internalType": "address",
          "name": "owner",
          "type": "address"
        }
      ],
      "name": "balanceOf",
      "outputs": [
        {
          "internalType": "uint256",
          "name": "",
          "type": "uint256"
        }
      ],
      "stateMutability": "view",
      "type": "function"
    },
    {
      "inputs": [
        {
          "internalType": "uint256",
          "name": "tokenId",
          "type": "uint256"
        }
      ],
      "name": "getApproved",
      "outputs": [
        {
          "internalType": "address",
          "name": "",
          "type": "address"
        }
      ],
      "stateMutability": "view",
      "type": "function"
    },
    {
      "inputs": [
        {
          "internalType": "address",
          "name": "owner",
          "type": "address"
        },
        {
          "internalType": "address",
          "name": "operator",
          "type": "address"
        }
      ],
      "name": "isApprovedForAll",
      "outputs": [
        {
          "internalType": "bool",
          "name": "",
          "type": "bool"
        }
      ],
      "stateMutability": "view",
      "type": "function"
    },
    {
      "inputs": [],
      "name": "name",
      "outputs": [
        {
          "internalType": "string",
          "name": "",
          "type": "string"
        }
      ],
      "stateMutability": "view",
      "type": "function"
    },
    {
      "inputs": [
        {
          "internalType": "uint256",
          "name": "tokenId",
          "type": "uint256"
        }
      ],
      "name": "ownerOf",
      "outputs": [
        {
          "internalType": "address",
          "name": "",
          "type": "address"
        }
      ],
      "stateMutability": "view",
      "type": "function"
    },
    {
      "inputs": [
        {
          "internalType": "address",
          "name": "from",
          "type": "address"
        },
        {
          "internalType": "address",
          "name": "to",
          "type": "address"
        },
        {
          "internalType": "uint256",
          "name": "tokenId",
          "type": "uint256"
        }
      ],
      "name": "safeTransferFrom",
      "outputs": [],
      "stateMutability": "nonpayable",
      "type": "function"
    },
    {
      "inputs": [
        {
          "internalType": "address",
          "name": "from",
          "type": "address"
        },
        {
          "internalType": "address",
          "name": "to",
          "type": "address"
        },
        {
          "internalType": "uint256",
          "name": "tokenId",
          "type": "uint256"
        },
        {
          "internalType": "bytes",
          "name": "data",
          "type": "bytes"
        }
      ],
      "name": "safeTransferFrom",
      "outputs": [],
      "stateMutability": "nonpayable",
      "type": "function"
    },
    {
      "inputs": [
        {
          "internalType": "address",
          "name": "operator",
          "type": "address"
        },
        {
          "internalType": "bool",
          "name": "approved",
          "type": "bool"
        }
      ],
      "name": "setApprovalForAll",
      "outputs": [],
      "stateMutability": "nonpayable",
      "type": "function"
    },
    {
      "inputs": [
        {
          "internalType": "bytes4",
          "name": "interfaceId",
          "type": "bytes4"
        }
      ],
      "name": "supportsInterface",
      "outputs": [
        {
          "internalType": "bool",
          "name": "",
          "type": "bool"
        }
      ],
      "stateMutability": "view",
      "type": "function"
    },
    {
      "inputs": [],
      "name": "symbol",
      "outputs": [
        {
          "internalType": "string",
          "name": "",
          "type": "string"
        }
      ],
      "stateMutability": "view",
      "type": "function"
    },
    {
      "inputs": [
        {
          "internalType": "uint256",
          "name": "tokenId",
          "type": "uint256"
        }
      ],
      "name": "tokenURI",
      "outputs": [
        {
          "internalType": "string",
          "name": "",
          "type": "string"
        }
      ],
      "stateMutability": "view",
      "type": "function"
    },
    {
      "inputs": [
        {
          "internalType": "address",
          "name": "from",
          "type": "address"
        },
        {
          "internalType": "address",
          "name": "to",
          "type": "address"
        },
        {
          "internalType": "uint256",
          "name": "tokenId",
          "type": "uint256"
        }
      ],
      "name": "transferFrom",
      "outputs": [],
      "stateMutability": "nonpayable",
      "type": "function"
    }
  ],
  "bytecode": {
    "object": "0x60806040523480156200001157600080fd5b5060405162001480380380620014808339810160408190526200003491620001c5565b81516200004990600090602085019062000068565b5080516200005f90600190602084019062000068565b50505062000282565b82805462000076906200022f565b90600052602060002090601f0160209004810192826200009a5760008555620000e5565b82601f10620000b557805160ff1916838001178555620000e5565b82800160010185558215620000e5579182015b82811115620000e5578251825591602001919060010190620000c8565b50620000f3929150620000f7565b5090565b5b80821115620000f35760008155600101620000f8565b600082601f8301126200012057600080fd5b81516001600160401b03808211156200013d576200013d6200026c565b604051601f8301601f19908116603f011681019082821181831017156200016857620001686200026c565b816040528381526020925086838588010111156200018557600080fd5b600091505b83821015620001a957858201830151818301840152908201906200018a565b83821115620001bb5760008385830101525b9695505050505050565b60008060408385031215620001d957600080fd5b82516001600160401b0380821115620001f157600080fd5b620001ff868387016200010e565b935060208501519150808211156200021657600080fd5b5062000225858286016200010e565b9150509250929050565b600181811c908216806200024457607f821691505b602082108114156200026657634e487b7160e01b600052602260045260246000fd5b50919050565b634e487b7160e01b600052604160045260246000fd5b6111ee80620002926000396000f3fe608060405234801561001057600080fd5b50600436106100cf5760003560e01c80636352211e1161008c578063a22cb46511610066578063a22cb465146101b3578063b88d4fde146101c6578063c87b56dd146101d9578063e985e9c5146101ec57600080fd5b80636352211e1461017757806370a082311461018a57806395d89b41146101ab57600080fd5b806301ffc9a7146100d457806306fdde03146100fc578063081812fc14610111578063095ea7b31461013c57806323b872dd1461015157806342842e0e14610164575b600080fd5b6100e76100e2366004610efe565b610228565b60405190151581526020015b60405180910390f35b61010461027a565b6040516100f39190610fe9565b61012461011f366004610f38565b61030c565b6040516001600160a01b0390911681526020016100f3565b61014f61014a366004610ed4565b610333565b005b61014f61015f366004610d80565b61044e565b61014f610172366004610d80565b61047f565b610124610185366004610f38565b61049a565b61019d610198366004610d32565b6104fa565b6040519081526020016100f3565b610104610580565b61014f6101c1366004610e98565b61058f565b61014f6101d4366004610dbc565b61059e565b6101046101e7366004610f38565b6105d6565b6100e76101fa366004610d4d565b6001600160a01b03918216600090815260056020908152604080832093909416825291909152205460ff1690565b60006001600160e01b031982166380ac58cd60e01b148061025957506001600160e01b03198216635b5e139f60e01b145b8061027457506301ffc9a760e01b6001600160e01b03198316145b92915050565b6060600080546102899061113b565b80601f01602080910402602001604051908101604052809291908181526020018280546102b59061113b565b80156103025780601f106102d757610100808354040283529160200191610302565b820191906000526020600020905b8154815290600101906020018083116102e557829003601f168201915b5050505050905090565b60006103178261064a565b506000908152600460205260409020546001600160a01b031690565b600061033e8261049a565b9050806001600160a01b0316836001600160a01b031614156103b15760405162461bcd60e51b815260206004820152602160248201527f4552433732313a20617070726f76616c20746f2063757272656e74206f776e656044820152603960f91b60648201526084015b60405180910390fd5b336001600160a01b03821614806103cd57506103cd81336101fa565b61043f5760405162461bcd60e51b815260206004820152603d60248201527f4552433732313a20617070726f76652063616c6c6572206973206e6f7420746f60448201527f6b656e206f776e6572206f7220617070726f76656420666f7220616c6c00000060648201526084016103a8565b61044983836106ac565b505050565b610458338261071a565b6104745760405162461bcd60e51b81526004016103a890610ffc565b610449838383610799565b6104498383836040518060200160405280600081525061059e565b6000818152600260205260408120546001600160a01b0316806102745760405162461bcd60e51b8152602060048201526018602482015277115490cdcc8c4e881a5b9d985b1a59081d1bdad95b88125160421b60448201526064016103a8565b60006001600160a01b0382166105645760405162461bcd60e51b815260206004820152602960248201527f4552433732313a2061646472657373207a65726f206973206e6f7420612076616044820152683634b21037bbb732b960b91b60648201526084016103a8565b506001600160a01b031660009081526003602052604090205490565b6060600180546102899061113b565b61059a33838361090a565b5050565b6105a8338361071a565b6105c45760405162461bcd60e51b81526004016103a890610ffc565b6105d0848484846109d9565b50505050565b60606105e18261064a565b60006105f860408051602081019091526000815290565b905060008151116106185760405180602001604052806000815250610643565b8061062284610a0c565b604051602001610633929190610f7d565b6040516020818303038152906040525b9392505050565b6000818152600260205260409020546001600160a01b03166106a95760405162461bcd60e51b8152602060048201526018602482015277115490cdcc8c4e881a5b9d985b1a59081d1bdad95b88125160421b60448201526064016103a8565b50565b600081815260046020526040902080546001600160a01b0319166001600160a01b03841690811790915581906106e18261049a565b6001600160a01b03167f8c5be1e5ebec7d5bd14f71427d1e84f3dd0314c0f7b2291e5b200ac8c7c3b92560405160405180910390a45050565b6000806107268361049a565b9050806001600160a01b0316846001600160a01b0316148061076d57506001600160a01b0380821660009081526005602090815260408083209388168352929052205460ff165b806107915750836001600160a01b03166107868461030c565b6001600160a01b0316145b949350505050565b826001600160a01b03166107ac8261049a565b6001600160a01b0316146107d25760405162461bcd60e51b81526004016103a89061109b565b6001600160a01b0382166108345760405162461bcd60e51b8152602060048201526024808201527f4552433732313a207472616e7366657220746f20746865207a65726f206164646044820152637265737360e01b60648201526084016103a8565b6108418383836001610aa9565b826001600160a01b03166108548261049a565b6001600160a01b03161461087a5760405162461bcd60e51b81526004016103a89061109b565b600081815260046020908152604080832080546001600160a01b03199081169091556001600160a01b0387811680865260038552838620805460001901905590871680865283862080546001019055868652600290945282852080549092168417909155905184937fddf252ad1be2c89b69c2b068fc378daa952ba7f163c4a11628f55a4df523b3ef91a4505050565b816001600160a01b0316836001600160a01b0316141561096c5760405162461bcd60e51b815260206004820152601960248201527f4552433732313a20617070726f766520746f2063616c6c65720000000000000060448201526064016103a8565b6001600160a01b03838116600081815260056020908152604080832094871680845294825291829020805460ff191686151590811790915591519182527f17307eab39ab6107e8899845ad3d59bd9653f200f220920489ca2b5937696c31910160405180910390a3505050565b6109e4848484610799565b6109f084848484610b31565b6105d05760405162461bcd60e51b81526004016103a890611049565b60606000610a1983610c3e565b600101905060008167ffffffffffffffff811115610a3957610a3961118c565b6040519080825280601f01601f191660200182016040528015610a63576020820181803683370190505b5090508181016020015b600019016f181899199a1a9b1b9c1cb0b131b232b360811b600a86061a8153600a8504945084610a9c57610aa1565b610a6d565b509392505050565b60018111156105d0576001600160a01b03841615610aef576001600160a01b03841660009081526003602052604081208054839290610ae99084906110f8565b90915550505b6001600160a01b038316156105d0576001600160a01b03831660009081526003602052604081208054839290610b269084906110e0565b909155505050505050565b60006001600160a01b0384163b15610c3357604051630a85bd0160e11b81526001600160a01b0385169063150b7a0290610b75903390899088908890600401610fac565b602060405180830381600087803b158015610b8f57600080fd5b505af1925050508015610bbf575060408051601f3d908101601f19168201909252610bbc91810190610f1b565b60015b610c19573d808015610bed576040519150601f19603f3d011682016040523d82523d6000602084013e610bf2565b606091505b508051610c115760405162461bcd60e51b81526004016103a890611049565b805181602001fd5b6001600160e01b031916630a85bd0160e11b149050610791565b506001949350505050565b60008072184f03e93ff9f4daa797ed6e38ed64bf6a1f0160401b8310610c7d5772184f03e93ff9f4daa797ed6e38ed64bf6a1f0160401b830492506040015b6d04ee2d6d415b85acef81000000008310610ca9576d04ee2d6d415b85acef8100000000830492506020015b662386f26fc100008310610cc757662386f26fc10000830492506010015b6305f5e1008310610cdf576305f5e100830492506008015b6127108310610cf357612710830492506004015b60648310610d05576064830492506002015b600a83106102745760010192915050565b80356001600160a01b0381168114610d2d57600080fd5b919050565b600060208284031215610d4457600080fd5b61064382610d16565b60008060408385031215610d6057600080fd5b610d6983610d16565b9150610d7760208401610d16565b90509250929050565b600080600060608486031215610d9557600080fd5b610d9e84610d16565b9250610dac60208501610d16565b9150604084013590509250925092565b60008060008060808587031215610dd257600080fd5b610ddb85610d16565b9350610de960208601610d16565b925060408501359150606085013567ffffffffffffffff80821115610e0d57600080fd5b818701915087601f830112610e2157600080fd5b813581811115610e3357610e3361118c565b604051601f8201601f19908116603f01168101908382118183101715610e5b57610e5b61118c565b816040528281528a6020848701011115610e7457600080fd5b82602086016020830137600060208483010152809550505050505092959194509250565b60008060408385031215610eab57600080fd5b610eb483610d16565b915060208301358015158114610ec957600080fd5b809150509250929050565b60008060408385031215610ee757600080fd5b610ef083610d16565b946020939093013593505050565b600060208284031215610f1057600080fd5b8135610643816111a2565b600060208284031215610f2d57600080fd5b8151610643816111a2565b600060208284031215610f4a57600080fd5b5035919050565b60008151808452610f6981602086016020860161110f565b601f01601f19169290920160200192915050565b60008351610f8f81846020880161110f565b835190830190610fa381836020880161110f565b01949350505050565b6001600160a01b0385811682528416602082015260408101839052608060608201819052600090610fdf90830184610f51565b9695505050505050565b6020815260006106436020830184610f51565b6020808252602d908201527f4552433732313a2063616c6c6572206973206e6f7420746f6b656e206f776e6560408201526c1c881bdc88185c1c1c9bdd9959609a1b606082015260800190565b60208082526032908201527f4552433732313a207472616e7366657220746f206e6f6e20455243373231526560408201527131b2b4bb32b91034b6b83632b6b2b73a32b960711b606082015260800190565b60208082526025908201527f4552433732313a207472616e736665722066726f6d20696e636f72726563742060408201526437bbb732b960d91b606082015260800190565b600082198211156110f3576110f3611176565b500190565b60008282101561110a5761110a611176565b500390565b60005b8381101561112a578181015183820152602001611112565b838111156105d05750506000910152565b600181811c9082168061114f57607f821691505b6020821081141561117057634e487b7160e01b600052602260045260246000fd5b50919050565b634e487b7160e01b600052601160045260246000fd5b634e487b7160e01b600052604160045260246000fd5b6001600160e01b0319811681146106a957600080fdfea2646970667358221220ff2b797d1ee8fce59bd8364834e37cddfcd9b2e9b4bb2e58d9cfb10d47059a8e64736f6c63430008070033",
    "linkReferences": {}
  },
  "methodIdentifiers": {
    "approve(address,uint256)": "095ea7b3",
    "balanceOf(address)": "70a08231",
    "getApproved(uint256)": "081812fc",
    "isApprovedForAll(address,address)": "e985e9c5",
    "name()": "06fdde03",
    "ownerOf(uint256)": "6352211e",
    "safeTransferFrom(address,address,uint256)": "42842e0e",
    "safeTransferFrom(address,address,uint256,bytes)": "b88d4fde",
    "setApprovalForAll(address,bool)": "a22cb465",
    "supportsInterface(bytes4)": "01ffc9a7",
    "symbol()": "95d89b41",
    "tokenURI(uint256)": "c87b56dd",
    "transferFrom(address,address,uint256)": "23b872dd"
  },
  "id": 8
}