{
  "abi": [
    {
      "inputs": [
        {
          "internalType": "uint256[2]",
          "name": "a",
          "type": "uint256[2]"
        },
        {
          "internalType": "uint256[2][2]",
          "name": "b",
          "type": "uint256[2][2]"
        },
        {
          "internalType": "uint256[2]",
          "name": "c",
          "type": "uint256[2]"
        },
        {
          "internalType": "uint256[1]",
          "name": "input",
          "type": "uint256[1]"
        }
      ],
      "name": "verifyProof",
      "outputs": [
        {
          "internalType": "bool",
          "name": "r",
          "type": "bool"
        }
      ],
      "stateMutability": "view",
      "type": "function"
    }
  ],
  "bytecode": {
    "object": "0x608060405234801561001057600080fd5b50610ea1806100206000396000f3fe608060405234801561001057600080fd5b506004361061002b5760003560e01c806343753b4d14610030575b600080fd5b61012c600480360361012081101561004757600080fd5b6040805180820182529183019291818301918390600290839083908082843760009201829052506040805180820190915293969594608081019493509150600290835b828210156100c8576040805180820182529080840286019060029083908390808284376000920191909152505050815260019091019060200161008a565b5050604080518082018252939695948181019493509150600290839083908082843760009201919091525050604080516020818101909252929594938181019392509060019083908390808284376000920191909152509194506101409350505050565b604080519115158252519081900360200190f35b600061014a610d40565b6040805180820182528751815260208089015181830152908352815160808101835287515181840190815288518301516060808401919091529082528351808501855289840180515182525184015181850152828401528483019190915282518084018452875181528783015181840152848401528251600180825281850190945290929091828101908036833701905050905060005b600181101561021a578481600181106101f657fe5b602002015182828151811061020757fe5b60209081029190910101526001016101e1565b506102258183610243565b6102345760019250505061023b565b6000925050505b949350505050565b60007f30644e72e131a029b85045b68181585d2833e84879b9709143e1f593f000000161026e610d72565b61027661041f565b90508060800151518551600101146102ca576040805162461bcd60e51b81526020600482015260126024820152711d995c9a599a595c8b5898590b5a5b9c1d5d60721b604482015290519081900360640190fd5b6102d2610db9565b6040518060400160405280600081526020016000815250905060005b86518110156103a8578387828151811061030457fe5b60200260200101511061035e576040805162461bcd60e51b815260206004820152601f60248201527f76657269666965722d6774652d736e61726b2d7363616c61722d6669656c6400604482015290519081900360640190fd5b61039e826103998560800151846001018151811061037857fe5b60200260200101518a858151811061038c57fe5b602002602001015161079f565b610834565b91506001016102ee565b506103cb8183608001516000815181106103be57fe5b6020026020010151610834565b90506104016103dd86600001516108c5565b8660200151846000015185602001518587604001518b604001518960600151610951565b6104115760019350505050610419565b600093505050505b92915050565b610427610d72565b6040805180820182527f026380ad9eac17b44b26c8c094e20d4da1d61e222288b8a587624f7ec0b4188381527f2d3cd21d095bc81a3d80d5ab0dea5efa7cdc51c4346c390e2089c67988c0f60f6020808301919091529083528151608080820184527f2e3422b0b13606f756e366ecc2ff2c07a364a90af5d9397436510f09ea9c8c9a8285019081527e1688a9f2a0a59f647146f2c535c3510e2dcb7735c24d9ca85d48234e456266606080850191909152908352845180860186527f1c6177a180515d0bc04db0330a4eaff8d53a7af4cababccc30db9cfe1e9b14b981527f2a69f25d10d41c6ff472dfa26dc3fcef6f6762bb9f21c8ff27f71e62a45cf7e3818601528385015285840192909252835180820185527f198e9393920d483a7260bfb731fb5d25f1aa493335a9e71297e485b7aef312c28186019081527f1800deef121f1e76426a00665e5c4479674322d4f75edadd46debd5cd992f6ed828501528152845180860186527f090689d0585ff075ec9e99ad690c3395bc4b313370b38ef355acdadcd122975b81527f12c85ea5db8c6deb4aab71808dcb408fe3d1e7690c43d37b4ce6cc0166fa7daa818601528185015285850152835190810184527f0b76b14f82f43590eec9036c7d5dfcfebbadd400692e59f370bdcd2cb6482c0f8185019081527f2237ee5356bed0f82b978ab9684490f4dc2695155497c2c766985d890138cbe6828401528152835180850185527f0225f3e85efc0ba132826bcfbb6be850bde39ba60577b552be6efcace2d631ca81527f2fb598f56f85276e5f130efa0b3e539d43e488eda4f2b056a9d85d0ddce0ee37818501528184015281850152825160028082529181019093529082015b6106a7610db9565b81526020019060019003908161069f57505060808201908152604080518082019091527f2f448fecf92af5a50463b31d92ebcceae3aafa1eb4b94dfc3ca8216eea14f17f81527f111a4388a64b9cbe9921a9baab8ffc43211cf96fe00adc88c76de7064e05630e60208201529051805160009061072057fe5b602002602001018190525060405180604001604052807f023a84a6238fd4238bd738dd9e33d36acc54b6158dc219854d31926d1b94eddc81526020017f011779ce25e1b2c2200191ed1197e50cc65def6d1027c73688527a4458633bbf815250816080015160018151811061079157fe5b602002602001018190525090565b6107a7610db9565b6107af610dd3565b835181526020808501519082015260408101839052600060608360808460076107d05a03fa90508080156107e2576107e4565bfe5b508061082c576040805162461bcd60e51b81526020600482015260126024820152711c185a5c9a5b99cb5b5d5b0b59985a5b195960721b604482015290519081900360640190fd5b505092915050565b61083c610db9565b610844610df1565b8351815260208085015181830152835160408301528301516060808301919091526000908360c08460066107d05a03fa90508080156107e257508061082c576040805162461bcd60e51b81526020600482015260126024820152711c185a5c9a5b99cb5859190b59985a5b195960721b604482015290519081900360640190fd5b6108cd610db9565b81517f30644e72e131a029b85045b68181585d97816a916871ca8d3c208c16d87cfd479015801561090057506020830151155b15610920575050604080518082019091526000808252602082015261094c565b6040518060400160405280846000015181526020018285602001518161094257fe5b0683038152509150505b919050565b60408051600480825260a0820190925260009160609190816020015b610975610db9565b81526020019060019003908161096d57505060408051600480825260a0820190925291925060609190602082015b6109ab610e0f565b8152602001906001900390816109a35790505090508a826000815181106109ce57fe5b602002602001018190525088826001815181106109e757fe5b60200260200101819052508682600281518110610a0057fe5b60200260200101819052508482600381518110610a1957fe5b60200260200101819052508981600081518110610a3257fe5b60200260200101819052508781600181518110610a4b57fe5b60200260200101819052508581600281518110610a6457fe5b60200260200101819052508381600381518110610a7d57fe5b6020026020010181905250610a928282610aa1565b9b9a5050505050505050505050565b60008151835114610af2576040805162461bcd60e51b81526020600482015260166024820152751c185a5c9a5b99cb5b195b99dd1a1ccb59985a5b195960521b604482015290519081900360640190fd5b82516006810260608167ffffffffffffffff81118015610b1157600080fd5b50604051908082528060200260200182016040528015610b3b578160200160208202803683370190505b50905060005b83811015610cc057868181518110610b5557fe5b602002602001015160000151828260060260000181518110610b7357fe5b602002602001018181525050868181518110610b8b57fe5b602002602001015160200151828260060260010181518110610ba957fe5b602002602001018181525050858181518110610bc157fe5b602090810291909101015151518251839060026006850201908110610be257fe5b602002602001018181525050858181518110610bfa57fe5b60209081029190910101515160016020020151828260060260030181518110610c1f57fe5b602002602001018181525050858181518110610c3757fe5b602002602001015160200151600060028110610c4f57fe5b6020020151828260060260040181518110610c6657fe5b602002602001018181525050858181518110610c7e57fe5b602002602001015160200151600160028110610c9657fe5b6020020151828260060260050181518110610cad57fe5b6020908102919091010152600101610b41565b50610cc9610e2f565b6000602082602086026020860160086107d05a03fa90508080156107e2575080610d32576040805162461bcd60e51b81526020600482015260156024820152741c185a5c9a5b99cb5bdc18dbd9194b59985a5b1959605a1b604482015290519081900360640190fd5b505115159695505050505050565b6040518060600160405280610d53610db9565b8152602001610d60610e0f565b8152602001610d6d610db9565b905290565b6040518060a00160405280610d85610db9565b8152602001610d92610e0f565b8152602001610d9f610e0f565b8152602001610dac610e0f565b8152602001606081525090565b604051806040016040528060008152602001600081525090565b60405180606001604052806003906020820280368337509192915050565b60405180608001604052806004906020820280368337509192915050565b6040518060400160405280610e22610e4d565b8152602001610d6d610e4d565b60405180602001604052806001906020820280368337509192915050565b6040518060400160405280600290602082028036833750919291505056fea264697066735822122017b5f4f60b910103117fc501515c8237379f642a5a02bc081dbe9583358dce2764736f6c634300060c0033",
    "linkReferences": {}
  },
  "methodIdentifiers": {
    "verifyProof(uint256[2],uint256[2][2],uint256[2],uint256[1])": "43753b4d"
  },
  "id": 1
}