{
  "abi": [
    {
      "inputs": [],
      "stateMutability": "nonpayable",
      "type": "constructor"
    },
    {
      "anonymous": false,
      "inputs": [
        {
          "indexed": true,
          "internalType": "address",
          "name": "owner",
          "type": "address"
        },
        {
          "indexed": true,
          "internalType": "address",
          "name": "approved",
          "type": "address"
        },
        {
          "indexed": true,
          "internalType": "uint256",
          "name": "tokenId",
          "type": "uint256"
        }
      ],
      "name": "Approval",
      "type": "event"
    },
    {
      "anonymous": false,
      "inputs": [
        {
          "indexed": true,
          "internalType": "address",
          "name": "owner",
          "type": "address"
        },
        {
          "indexed": true,
          "internalType": "address",
          "name": "operator",
          "type": "address"
        },
        {
          "indexed": false,
          "internalType": "bool",
          "name": "approved",
          "type": "bool"
        }
      ],
      "name": "ApprovalForAll",
      "type": "event"
    },
    {
      "anonymous": false,
      "inputs": [
        {
          "indexed": true,
          "internalType": "uint256",
          "name": "tokenId",
          "type": "uint256"
        },
        {
          "indexed": false,
          "internalType": "address",
          "name": "registeredBy",
          "type": "address"
        },
        {
          "indexed": false,
          "internalType": "string",
          "name": "name",
          "type": "string"
        }
      ],
      "name": "NewOrganizatoinRegistered",
      "type": "event"
    },
    {
      "anonymous": false,
      "inputs": [
        {
          "indexed": true,
          "internalType": "uint256",
          "name": "tokenId",
          "type": "uint256"
        },
        {
          "indexed": false,
          "internalType": "address",
          "name": "updatedBy",
          "type": "address"
        },
        {
          "indexed": false,
          "internalType": "string",
          "name": "name",
          "type": "string"
        }
      ],
      "name": "OrganizationProfileUpdated",
      "type": "event"
    },
    {
      "anonymous": false,
      "inputs": [
        {
          "indexed": true,
          "internalType": "uint256",
          "name": "tokenId",
          "type": "uint256"
        },
        {
          "indexed": false,
          "internalType": "string",
          "name": "name",
          "type": "string"
        }
      ],
      "name": "OrganizationRemoved",
      "type": "event"
    },
    {
      "anonymous": false,
      "inputs": [
        {
          "indexed": true,
          "internalType": "address",
          "name": "from",
          "type": "address"
        },
        {
          "indexed": true,
          "internalType": "address",
          "name": "to",
          "type": "address"
        },
        {
          "indexed": true,
          "internalType": "uint256",
          "name": "tokenId",
          "type": "uint256"
        }
      ],
      "name": "Transfer",
      "type": "event"
    },
    {
      "inputs": [
        {
          "internalType": "address",
          "name": "to",
          "type": "address"
        },
        {
          "internalType": "uint256",
          "name": "tokenId",
          "type": "uint256"
        }
      ],
      "name": "approve",
      "outputs": [],
      "stateMutability": "nonpayable",
      "type": "function"
    },
    {
      "inputs": [
        {
          "internalType": "address",
          "name": "owner",
          "type": "address"
        }
      ],
      "name": "balanceOf",
      "outputs": [
        {
          "internalType": "uint256",
          "name": "",
          "type": "uint256"
        }
      ],
      "stateMutability": "view",
      "type": "function"
    },
    {
      "inputs": [
        {
          "internalType": "uint256",
          "name": "tokenId",
          "type": "uint256"
        }
      ],
      "name": "getApproved",
      "outputs": [
        {
          "internalType": "address",
          "name": "",
          "type": "address"
        }
      ],
      "stateMutability": "view",
      "type": "function"
    },
    {
      "inputs": [
        {
          "internalType": "uint256",
          "name": "tokenId_",
          "type": "uint256"
        }
      ],
      "name": "getOrganizationProfile",
      "outputs": [
        {
          "components": [
            {
              "internalType": "string",
              "name": "name",
              "type": "string"
            },
            {
              "internalType": "string",
              "name": "location",
              "type": "string"
            },
            {
              "internalType": "uint256",
              "name": "registeredAt",
              "type": "uint256"
            },
            {
              "internalType": "uint256",
              "name": "updatedAt",
              "type": "uint256"
            }
          ],
          "internalType": "struct Organizations.Organization",
          "name": "",
          "type": "tuple"
        },
        {
          "internalType": "string",
          "name": "",
          "type": "string"
        }
      ],
      "stateMutability": "view",
      "type": "function"
    },
    {
      "inputs": [],
      "name": "getYourOrganiationId",
      "outputs": [
        {
          "internalType": "uint256",
          "name": "",
          "type": "uint256"
        }
      ],
      "stateMutability": "view",
      "type": "function"
    },
    {
      "inputs": [
        {
          "internalType": "address",
          "name": "owner",
          "type": "address"
        },
        {
          "internalType": "address",
          "name": "operator",
          "type": "address"
        }
      ],
      "name": "isApprovedForAll",
      "outputs": [
        {
          "internalType": "bool",
          "name": "",
          "type": "bool"
        }
      ],
      "stateMutability": "view",
      "type": "function"
    },
    {
      "inputs": [],
      "name": "name",
      "outputs": [
        {
          "internalType": "string",
          "name": "",
          "type": "string"
        }
      ],
      "stateMutability": "view",
      "type": "function"
    },
    {
      "inputs": [
        {
          "internalType": "uint256",
          "name": "tokenId",
          "type": "uint256"
        }
      ],
      "name": "ownerOf",
      "outputs": [
        {
          "internalType": "address",
          "name": "",
          "type": "address"
        }
      ],
      "stateMutability": "view",
      "type": "function"
    },
    {
      "inputs": [
        {
          "internalType": "string",
          "name": "name_",
          "type": "string"
        },
        {
          "internalType": "string",
          "name": "location_",
          "type": "string"
        },
        {
          "internalType": "string",
          "name": "tokenURI_",
          "type": "string"
        }
      ],
      "name": "registerOrganization",
      "outputs": [],
      "stateMutability": "nonpayable",
      "type": "function"
    },
    {
      "inputs": [
        {
          "internalType": "uint256",
          "name": "tokenId_",
          "type": "uint256"
        }
      ],
      "name": "removeOrganization",
      "outputs": [],
      "stateMutability": "nonpayable",
      "type": "function"
    },
    {
      "inputs": [
        {
          "internalType": "address",
          "name": "from",
          "type": "address"
        },
        {
          "internalType": "address",
          "name": "to",
          "type": "address"
        },
        {
          "internalType": "uint256",
          "name": "tokenId",
          "type": "uint256"
        }
      ],
      "name": "safeTransferFrom",
      "outputs": [],
      "stateMutability": "nonpayable",
      "type": "function"
    },
    {
      "inputs": [
        {
          "internalType": "address",
          "name": "from",
          "type": "address"
        },
        {
          "internalType": "address",
          "name": "to",
          "type": "address"
        },
        {
          "internalType": "uint256",
          "name": "tokenId",
          "type": "uint256"
        },
        {
          "internalType": "bytes",
          "name": "data",
          "type": "bytes"
        }
      ],
      "name": "safeTransferFrom",
      "outputs": [],
      "stateMutability": "nonpayable",
      "type": "function"
    },
    {
      "inputs": [
        {
          "internalType": "address",
          "name": "operator",
          "type": "address"
        },
        {
          "internalType": "bool",
          "name": "approved",
          "type": "bool"
        }
      ],
      "name": "setApprovalForAll",
      "outputs": [],
      "stateMutability": "nonpayable",
      "type": "function"
    },
    {
      "inputs": [
        {
          "internalType": "bytes4",
          "name": "interfaceId",
          "type": "bytes4"
        }
      ],
      "name": "supportsInterface",
      "outputs": [
        {
          "internalType": "bool",
          "name": "",
          "type": "bool"
        }
      ],
      "stateMutability": "view",
      "type": "function"
    },
    {
      "inputs": [],
      "name": "symbol",
      "outputs": [
        {
          "internalType": "string",
          "name": "",
          "type": "string"
        }
      ],
      "stateMutability": "view",
      "type": "function"
    },
    {
      "inputs": [
        {
          "internalType": "uint256",
          "name": "tokenId",
          "type": "uint256"
        }
      ],
      "name": "tokenURI",
      "outputs": [
        {
          "internalType": "string",
          "name": "",
          "type": "string"
        }
      ],
      "stateMutability": "view",
      "type": "function"
    },
    {
      "inputs": [
        {
          "internalType": "address",
          "name": "from",
          "type": "address"
        },
        {
          "internalType": "address",
          "name": "to",
          "type": "address"
        },
        {
          "internalType": "uint256",
          "name": "tokenId",
          "type": "uint256"
        }
      ],
      "name": "transferFrom",
      "outputs": [],
      "stateMutability": "nonpayable",
      "type": "function"
    },
    {
      "inputs": [
        {
          "internalType": "uint256",
          "name": "tokenId_",
          "type": "uint256"
        },
        {
          "internalType": "string",
          "name": "name_",
          "type": "string"
        },
        {
          "internalType": "string",
          "name": "location_",
          "type": "string"
        },
        {
          "internalType": "string",
          "name": "tokenURI_",
          "type": "string"
        }
      ],
      "name": "updateOrganizationProfile",
      "outputs": [],
      "stateMutability": "nonpayable",
      "type": "function"
    }
  ],
  "bytecode": {
    "object": "0x60806040523480156200001157600080fd5b50604080518082018252601681527f4f7267616e697a6174696f6e27732070726f66696c650000000000000000000060208083019182528351808501909452600384526227a82360e91b908401528151919291620000729160009162000091565b5080516200008890600190602084019062000091565b50505062000174565b8280546200009f9062000137565b90600052602060002090601f016020900481019282620000c357600085556200010e565b82601f10620000de57805160ff19168380011785556200010e565b828001600101855582156200010e579182015b828111156200010e578251825591602001919060010190620000f1565b506200011c92915062000120565b5090565b5b808211156200011c576000815560010162000121565b600181811c908216806200014c57607f821691505b602082108114156200016e57634e487b7160e01b600052602260045260246000fd5b50919050565b61205b80620001846000396000f3fe608060405234801561001057600080fd5b50600436106101165760003560e01c80636352211e116100a2578063a35eab0d11610071578063a35eab0d1461023b578063b88d4fde1461024e578063c87b56dd14610261578063e6629df914610274578063e985e9c51461029557600080fd5b80636352211e146101fa57806370a082311461020d57806395d89b4114610220578063a22cb4651461022857600080fd5b8063095ea7b3116100e9578063095ea7b31461019957806323b872dd146101ae5780632ee5144f146101c157806342842e0e146101d45780635a282347146101e757600080fd5b80630148305b1461011b57806301ffc9a71461013657806306fdde0314610159578063081812fc1461016e575b600080fd5b6101236102a8565b6040519081526020015b60405180910390f35b610149610144366004611b0b565b61030f565b604051901515815260200161012d565b610161610361565b60405161012d9190611d28565b61018161017c366004611bcd565b6103f3565b6040516001600160a01b03909116815260200161012d565b6101ac6101a7366004611ae1565b61041a565b005b6101ac6101bc3660046119ed565b610530565b6101ac6101cf366004611b45565b610561565b6101ac6101e23660046119ed565b6106a2565b6101ac6101f5366004611be6565b6106bd565b610181610208366004611bcd565b61081b565b61012361021b36600461199f565b61087b565b610161610901565b6101ac610236366004611aa5565b610910565b6101ac610249366004611bcd565b61091f565b6101ac61025c366004611a29565b610a8b565b61016161026f366004611bcd565b610ac3565b610287610282366004611bcd565b610bd4565b60405161012d929190611ec7565b6101496102a33660046119ba565b610dc0565b336000908152600960205260408120548061030a5760405162461bcd60e51b815260206004820152601b60248201527f546869732061646472657373206e6f742072656769737465726564000000000060448201526064015b60405180910390fd5b919050565b60006001600160e01b031982166380ac58cd60e01b148061034057506001600160e01b03198216635b5e139f60e01b145b8061035b57506301ffc9a760e01b6001600160e01b03198316145b92915050565b60606000805461037090611f8d565b80601f016020809104026020016040519081016040528092919081815260200182805461039c90611f8d565b80156103e95780601f106103be576101008083540402835291602001916103e9565b820191906000526020600020905b8154815290600101906020018083116103cc57829003601f168201915b5050505050905090565b60006103fe82610dee565b506000908152600460205260409020546001600160a01b031690565b60006104258261081b565b9050806001600160a01b0316836001600160a01b031614156104935760405162461bcd60e51b815260206004820152602160248201527f4552433732313a20617070726f76616c20746f2063757272656e74206f776e656044820152603960f91b6064820152608401610301565b336001600160a01b03821614806104af57506104af8133610dc0565b6105215760405162461bcd60e51b815260206004820152603d60248201527f4552433732313a20617070726f76652063616c6c6572206973206e6f7420746f60448201527f6b656e206f776e6572206f7220617070726f76656420666f7220616c6c0000006064820152608401610301565b61052b8383610e50565b505050565b61053a3382610ebe565b6105565760405162461bcd60e51b815260040161030190611de3565b61052b838383610f1c565b61056a3361087b565b156105ac5760405162461bcd60e51b8152602060048201526012602482015271105b1c9958591e48149959da5cdd195c995960721b6044820152606401610301565b600780549060006105bc83611fc8565b909155505060408051608081018252848152602080820185905242828401526000606083018190526007548152600882529290922081518051929384936106069284920190611823565b50602082810151805161061f9260018501920190611823565b5060408201518160020155606082015181600301559050506106433360075461108d565b61064f60075483611226565b6007543360008181526009602052604090819020839055517f433d8d61bf2f1d7ef32ee14246525b7aaf23c8154a6267b79e1b98cbaec80e1091610694918890611d04565b60405180910390a250505050565b61052b83838360405180602001604052806000815250610a8b565b6000841180156106cf57506007548411155b61070c5760405162461bcd60e51b815260206004820152600e60248201526d139bdd08149959da5cdd195c995960921b6044820152606401610301565b60006107178561081b565b9050336001600160a01b0382161480610740575033610735866103f3565b6001600160a01b0316145b8061075057506107508133610dc0565b6107935760405162461bcd60e51b81526020600482015260146024820152734e6f7420616c6c6f77656420666f7220796f752160601b6044820152606401610301565b6000858152600860209081526040909120855190916107b6918391880190611823565b5083516107cc9060018301906020870190611823565b506107d78684611226565b6007547fce64f0e23f8969802fcaeb3837f19f04a54228ce9f0af0bd0e0dfd1dbd36ba1e338760405161080b929190611d04565b60405180910390a2505050505050565b6000818152600260205260408120546001600160a01b03168061035b5760405162461bcd60e51b8152602060048201526018602482015277115490cdcc8c4e881a5b9d985b1a59081d1bdad95b88125160421b6044820152606401610301565b60006001600160a01b0382166108e55760405162461bcd60e51b815260206004820152602960248201527f4552433732313a2061646472657373207a65726f206973206e6f7420612076616044820152683634b21037bbb732b960b91b6064820152608401610301565b506001600160a01b031660009081526003602052604090205490565b60606001805461037090611f8d565b61091b3383836112c0565b5050565b60008111801561093157506007548111155b61096e5760405162461bcd60e51b815260206004820152600e60248201526d139bdd08149959da5cdd195c995960921b6044820152606401610301565b60006109798261081b565b9050336001600160a01b03821614806109a2575033610997836103f3565b6001600160a01b0316145b806109b257506109b28133610dc0565b6109f55760405162461bcd60e51b81526020600482015260146024820152734e6f7420616c6c6f77656420666f7220796f752160601b6044820152606401610301565b610a0060075461138f565b6000828152600860205260409081902060075491519091907f394cd11eff7078db65f4c8f76bcdfb08a9c087dbdbb21a5eb45db8a484ae4b9990610a45908490611d3b565b60405180910390a2336000908152600960205260408120819055610a6a9082906118a7565b610a786001820160006118a7565b6000600282018190556003909101555050565b610a953383610ebe565b610ab15760405162461bcd60e51b815260040161030190611de3565b610abd848484846113cf565b50505050565b6060610ace82610dee565b60008281526006602052604081208054610ae790611f8d565b80601f0160208091040260200160405190810160405280929190818152602001828054610b1390611f8d565b8015610b605780601f10610b3557610100808354040283529160200191610b60565b820191906000526020600020905b815481529060010190602001808311610b4357829003601f168201915b505050505090506000610b7e60408051602081019091526000815290565b9050805160001415610b91575092915050565b815115610bc3578082604051602001610bab929190611c98565b60405160208183030381529060405292505050919050565b610bcc84611402565b949350505050565b610bff6040518060800160405280606081526020016060815260200160008152602001600081525090565b6060600083118015610c1357506007548311155b610c585760405162461bcd60e51b815260206004820152601660248201527513dc99d85b9a5e985d1a5bdb881b9bdd08199bdd5b9960521b6044820152606401610301565b600083815260086020526040808220815160808101909252805482908290610c7f90611f8d565b80601f0160208091040260200160405190810160405280929190818152602001828054610cab90611f8d565b8015610cf85780601f10610ccd57610100808354040283529160200191610cf8565b820191906000526020600020905b815481529060010190602001808311610cdb57829003601f168201915b50505050508152602001600182018054610d1190611f8d565b80601f0160208091040260200160405190810160405280929190818152602001828054610d3d90611f8d565b8015610d8a5780601f10610d5f57610100808354040283529160200191610d8a565b820191906000526020600020905b815481529060010190602001808311610d6d57829003601f168201915b505050505081526020016002820154815260200160038201548152505090506000610db485610ac3565b91959194509092505050565b6001600160a01b03918216600090815260056020908152604080832093909416825291909152205460ff1690565b6000818152600260205260409020546001600160a01b0316610e4d5760405162461bcd60e51b8152602060048201526018602482015277115490cdcc8c4e881a5b9d985b1a59081d1bdad95b88125160421b6044820152606401610301565b50565b600081815260046020526040902080546001600160a01b0319166001600160a01b0384169081179091558190610e858261081b565b6001600160a01b03167f8c5be1e5ebec7d5bd14f71427d1e84f3dd0314c0f7b2291e5b200ac8c7c3b92560405160405180910390a45050565b600080610eca8361081b565b9050806001600160a01b0316846001600160a01b03161480610ef15750610ef18185610dc0565b80610bcc5750836001600160a01b0316610f0a846103f3565b6001600160a01b031614949350505050565b826001600160a01b0316610f2f8261081b565b6001600160a01b031614610f555760405162461bcd60e51b815260040161030190611e82565b6001600160a01b038216610fb75760405162461bcd60e51b8152602060048201526024808201527f4552433732313a207472616e7366657220746f20746865207a65726f206164646044820152637265737360e01b6064820152608401610301565b610fc48383836001611476565b826001600160a01b0316610fd78261081b565b6001600160a01b031614610ffd5760405162461bcd60e51b815260040161030190611e82565b600081815260046020908152604080832080546001600160a01b03199081169091556001600160a01b0387811680865260038552838620805460001901905590871680865283862080546001019055868652600290945282852080549092168417909155905184937fddf252ad1be2c89b69c2b068fc378daa952ba7f163c4a11628f55a4df523b3ef91a4505050565b6001600160a01b0382166110e35760405162461bcd60e51b815260206004820181905260248201527f4552433732313a206d696e7420746f20746865207a65726f20616464726573736044820152606401610301565b6000818152600260205260409020546001600160a01b0316156111485760405162461bcd60e51b815260206004820152601c60248201527f4552433732313a20746f6b656e20616c7265616479206d696e746564000000006044820152606401610301565b611156600083836001611476565b6000818152600260205260409020546001600160a01b0316156111bb5760405162461bcd60e51b815260206004820152601c60248201527f4552433732313a20746f6b656e20616c7265616479206d696e746564000000006044820152606401610301565b6001600160a01b038216600081815260036020908152604080832080546001019055848352600290915280822080546001600160a01b0319168417905551839291907fddf252ad1be2c89b69c2b068fc378daa952ba7f163c4a11628f55a4df523b3ef908290a45050565b6000828152600260205260409020546001600160a01b03166112a15760405162461bcd60e51b815260206004820152602e60248201527f45524337323155524953746f726167653a2055524920736574206f66206e6f6e60448201526d32bc34b9ba32b73a103a37b5b2b760911b6064820152608401610301565b6000828152600660209081526040909120825161052b92840190611823565b816001600160a01b0316836001600160a01b031614156113225760405162461bcd60e51b815260206004820152601960248201527f4552433732313a20617070726f766520746f2063616c6c6572000000000000006044820152606401610301565b6001600160a01b03838116600081815260056020908152604080832094871680845294825291829020805460ff191686151590811790915591519182527f17307eab39ab6107e8899845ad3d59bd9653f200f220920489ca2b5937696c31910160405180910390a3505050565b611398816114fe565b600081815260066020526040902080546113b190611f8d565b159050610e4d576000818152600660205260408120610e4d916118a7565b6113da848484610f1c565b6113e6848484846115a1565b610abd5760405162461bcd60e51b815260040161030190611e30565b606061140d82610dee565b600061142460408051602081019091526000815290565b90506000815111611444576040518060200160405280600081525061146f565b8061144e846116ae565b60405160200161145f929190611c98565b6040516020818303038152906040525b9392505050565b6001811115610abd576001600160a01b038416156114bc576001600160a01b038416600090815260036020526040812080548392906114b6908490611f4a565b90915550505b6001600160a01b03831615610abd576001600160a01b038316600090815260036020526040812080548392906114f3908490611f32565b909155505050505050565b60006115098261081b565b9050611519816000846001611476565b6115228261081b565b600083815260046020908152604080832080546001600160a01b03199081169091556001600160a01b0385168085526003845282852080546000190190558785526002909352818420805490911690555192935084927fddf252ad1be2c89b69c2b068fc378daa952ba7f163c4a11628f55a4df523b3ef908390a45050565b60006001600160a01b0384163b156116a357604051630a85bd0160e11b81526001600160a01b0385169063150b7a02906115e5903390899088908890600401611cc7565b602060405180830381600087803b1580156115ff57600080fd5b505af192505050801561162f575060408051601f3d908101601f1916820190925261162c91810190611b28565b60015b611689573d80801561165d576040519150601f19603f3d011682016040523d82523d6000602084013e611662565b606091505b5080516116815760405162461bcd60e51b815260040161030190611e30565b805181602001fd5b6001600160e01b031916630a85bd0160e11b149050610bcc565b506001949350505050565b606060006116bb8361174b565b600101905060008167ffffffffffffffff8111156116db576116db611ff9565b6040519080825280601f01601f191660200182016040528015611705576020820181803683370190505b5090508181016020015b600019016f181899199a1a9b1b9c1cb0b131b232b360811b600a86061a8153600a850494508461173e57611743565b61170f565b509392505050565b60008072184f03e93ff9f4daa797ed6e38ed64bf6a1f0160401b831061178a5772184f03e93ff9f4daa797ed6e38ed64bf6a1f0160401b830492506040015b6d04ee2d6d415b85acef810000000083106117b6576d04ee2d6d415b85acef8100000000830492506020015b662386f26fc1000083106117d457662386f26fc10000830492506010015b6305f5e10083106117ec576305f5e100830492506008015b612710831061180057612710830492506004015b60648310611812576064830492506002015b600a831061035b5760010192915050565b82805461182f90611f8d565b90600052602060002090601f0160209004810192826118515760008555611897565b82601f1061186a57805160ff1916838001178555611897565b82800160010185558215611897579182015b8281111561189757825182559160200191906001019061187c565b506118a39291506118dd565b5090565b5080546118b390611f8d565b6000825580601f106118c3575050565b601f016020900490600052602060002090810190610e4d91905b5b808211156118a357600081556001016118de565b600067ffffffffffffffff8084111561190d5761190d611ff9565b604051601f8501601f19908116603f0116810190828211818310171561193557611935611ff9565b8160405280935085815286868601111561194e57600080fd5b858560208301376000602087830101525050509392505050565b80356001600160a01b038116811461030a57600080fd5b600082601f83011261199057600080fd5b61146f838335602085016118f2565b6000602082840312156119b157600080fd5b61146f82611968565b600080604083850312156119cd57600080fd5b6119d683611968565b91506119e460208401611968565b90509250929050565b600080600060608486031215611a0257600080fd5b611a0b84611968565b9250611a1960208501611968565b9150604084013590509250925092565b60008060008060808587031215611a3f57600080fd5b611a4885611968565b9350611a5660208601611968565b925060408501359150606085013567ffffffffffffffff811115611a7957600080fd5b8501601f81018713611a8a57600080fd5b611a99878235602084016118f2565b91505092959194509250565b60008060408385031215611ab857600080fd5b611ac183611968565b915060208301358015158114611ad657600080fd5b809150509250929050565b60008060408385031215611af457600080fd5b611afd83611968565b946020939093013593505050565b600060208284031215611b1d57600080fd5b813561146f8161200f565b600060208284031215611b3a57600080fd5b815161146f8161200f565b600080600060608486031215611b5a57600080fd5b833567ffffffffffffffff80821115611b7257600080fd5b611b7e8783880161197f565b94506020860135915080821115611b9457600080fd5b611ba08783880161197f565b93506040860135915080821115611bb657600080fd5b50611bc38682870161197f565b9150509250925092565b600060208284031215611bdf57600080fd5b5035919050565b60008060008060808587031215611bfc57600080fd5b84359350602085013567ffffffffffffffff80821115611c1b57600080fd5b611c278883890161197f565b94506040870135915080821115611c3d57600080fd5b611c498883890161197f565b93506060870135915080821115611c5f57600080fd5b50611a998782880161197f565b60008151808452611c84816020860160208601611f61565b601f01601f19169290920160200192915050565b60008351611caa818460208801611f61565b835190830190611cbe818360208801611f61565b01949350505050565b6001600160a01b0385811682528416602082015260408101839052608060608201819052600090611cfa90830184611c6c565b9695505050505050565b6001600160a01b0383168152604060208201819052600090610bcc90830184611c6c565b60208152600061146f6020830184611c6c565b600060208083526000845481600182811c915080831680611d5d57607f831692505b858310811415611d7b57634e487b7160e01b85526022600452602485fd5b878601838152602001818015611d985760018114611da957611dd4565b60ff19861682528782019650611dd4565b60008b81526020902060005b86811015611dce57815484820152908501908901611db5565b83019750505b50949998505050505050505050565b6020808252602d908201527f4552433732313a2063616c6c6572206973206e6f7420746f6b656e206f776e6560408201526c1c881bdc88185c1c1c9bdd9959609a1b606082015260800190565b60208082526032908201527f4552433732313a207472616e7366657220746f206e6f6e20455243373231526560408201527131b2b4bb32b91034b6b83632b6b2b73a32b960711b606082015260800190565b60208082526025908201527f4552433732313a207472616e736665722066726f6d20696e636f72726563742060408201526437bbb732b960d91b606082015260800190565b604081526000835160806040840152611ee360c0840182611c6c565b90506020850151603f19848303016060850152611f008282611c6c565b91505060408501516080840152606085015160a08401528281036020840152611f298185611c6c565b95945050505050565b60008219821115611f4557611f45611fe3565b500190565b600082821015611f5c57611f5c611fe3565b500390565b60005b83811015611f7c578181015183820152602001611f64565b83811115610abd5750506000910152565b600181811c90821680611fa157607f821691505b60208210811415611fc257634e487b7160e01b600052602260045260246000fd5b50919050565b6000600019821415611fdc57611fdc611fe3565b5060010190565b634e487b7160e01b600052601160045260246000fd5b634e487b7160e01b600052604160045260246000fd5b6001600160e01b031981168114610e4d57600080fdfea2646970667358221220de54ecd19be658457780d3b5dd20f31467d7d0b3eae0af009ee84fb47ce7e51e64736f6c63430008070033",
    "linkReferences": {}
  },
  "methodIdentifiers": {
    "approve(address,uint256)": "095ea7b3",
    "balanceOf(address)": "70a08231",
    "getApproved(uint256)": "081812fc",
    "getOrganizationProfile(uint256)": "e6629df9",
    "getYourOrganiationId()": "0148305b",
    "isApprovedForAll(address,address)": "e985e9c5",
    "name()": "06fdde03",
    "ownerOf(uint256)": "6352211e",
    "registerOrganization(string,string,string)": "2ee5144f",
    "removeOrganization(uint256)": "a35eab0d",
    "safeTransferFrom(address,address,uint256)": "42842e0e",
    "safeTransferFrom(address,address,uint256,bytes)": "b88d4fde",
    "setApprovalForAll(address,bool)": "a22cb465",
    "supportsInterface(bytes4)": "01ffc9a7",
    "symbol()": "95d89b41",
    "tokenURI(uint256)": "c87b56dd",
    "transferFrom(address,address,uint256)": "23b872dd",
    "updateOrganizationProfile(uint256,string,string,string)": "5a282347"
  },
  "id": 23
}