{
  "abi": [
    {
      "inputs": [],
      "stateMutability": "nonpayable",
      "type": "constructor"
    },
    {
      "anonymous": false,
      "inputs": [
        {
          "indexed": true,
          "internalType": "address",
          "name": "owner",
          "type": "address"
        },
        {
          "indexed": true,
          "internalType": "address",
          "name": "approved",
          "type": "address"
        },
        {
          "indexed": true,
          "internalType": "uint256",
          "name": "tokenId",
          "type": "uint256"
        }
      ],
      "name": "Approval",
      "type": "event"
    },
    {
      "anonymous": false,
      "inputs": [
        {
          "indexed": true,
          "internalType": "address",
          "name": "owner",
          "type": "address"
        },
        {
          "indexed": true,
          "internalType": "address",
          "name": "operator",
          "type": "address"
        },
        {
          "indexed": false,
          "internalType": "bool",
          "name": "approved",
          "type": "bool"
        }
      ],
      "name": "ApprovalForAll",
      "type": "event"
    },
    {
      "anonymous": false,
      "inputs": [
        {
          "indexed": true,
          "internalType": "uint256",
          "name": "tokenId",
          "type": "uint256"
        },
        {
          "indexed": false,
          "internalType": "address",
          "name": "owner",
          "type": "address"
        },
        {
          "indexed": false,
          "internalType": "string",
          "name": "name",
          "type": "string"
        }
      ],
      "name": "NewSuppleirRegistered",
      "type": "event"
    },
    {
      "anonymous": false,
      "inputs": [
        {
          "indexed": true,
          "internalType": "uint256",
          "name": "tokenId",
          "type": "uint256"
        },
        {
          "indexed": false,
          "internalType": "address",
          "name": "updatedBy",
          "type": "address"
        },
        {
          "indexed": false,
          "internalType": "string",
          "name": "name",
          "type": "string"
        }
      ],
      "name": "ProfileUpdated",
      "type": "event"
    },
    {
      "anonymous": false,
      "inputs": [
        {
          "indexed": true,
          "internalType": "uint256",
          "name": "tokenId",
          "type": "uint256"
        },
        {
          "indexed": false,
          "internalType": "address",
          "name": "removedBy",
          "type": "address"
        },
        {
          "indexed": false,
          "internalType": "string",
          "name": "name",
          "type": "string"
        }
      ],
      "name": "SuppleirRemoved",
      "type": "event"
    },
    {
      "anonymous": false,
      "inputs": [
        {
          "indexed": true,
          "internalType": "address",
          "name": "from",
          "type": "address"
        },
        {
          "indexed": true,
          "internalType": "address",
          "name": "to",
          "type": "address"
        },
        {
          "indexed": true,
          "internalType": "uint256",
          "name": "tokenId",
          "type": "uint256"
        }
      ],
      "name": "Transfer",
      "type": "event"
    },
    {
      "inputs": [
        {
          "internalType": "address",
          "name": "to",
          "type": "address"
        },
        {
          "internalType": "uint256",
          "name": "tokenId",
          "type": "uint256"
        }
      ],
      "name": "approve",
      "outputs": [],
      "stateMutability": "nonpayable",
      "type": "function"
    },
    {
      "inputs": [
        {
          "internalType": "address",
          "name": "owner",
          "type": "address"
        }
      ],
      "name": "balanceOf",
      "outputs": [
        {
          "internalType": "uint256",
          "name": "",
          "type": "uint256"
        }
      ],
      "stateMutability": "view",
      "type": "function"
    },
    {
      "inputs": [
        {
          "internalType": "uint256",
          "name": "tokenId",
          "type": "uint256"
        }
      ],
      "name": "getApproved",
      "outputs": [
        {
          "internalType": "address",
          "name": "",
          "type": "address"
        }
      ],
      "stateMutability": "view",
      "type": "function"
    },
    {
      "inputs": [
        {
          "internalType": "uint256",
          "name": "tokenId_",
          "type": "uint256"
        }
      ],
      "name": "getSuppleirProfile",
      "outputs": [
        {
          "components": [
            {
              "internalType": "string",
              "name": "name",
              "type": "string"
            },
            {
              "internalType": "string",
              "name": "addr",
              "type": "string"
            },
            {
              "internalType": "string",
              "name": "owner",
              "type": "string"
            },
            {
              "internalType": "string",
              "name": "categories",
              "type": "string"
            },
            {
              "internalType": "uint256",
              "name": "registeredAt",
              "type": "uint256"
            }
          ],
          "internalType": "struct Suppleirs.SuppleirProfile",
          "name": "",
          "type": "tuple"
        },
        {
          "internalType": "string",
          "name": "",
          "type": "string"
        }
      ],
      "stateMutability": "view",
      "type": "function"
    },
    {
      "inputs": [],
      "name": "getYourId",
      "outputs": [
        {
          "internalType": "uint256",
          "name": "",
          "type": "uint256"
        }
      ],
      "stateMutability": "view",
      "type": "function"
    },
    {
      "inputs": [
        {
          "internalType": "address",
          "name": "owner",
          "type": "address"
        },
        {
          "internalType": "address",
          "name": "operator",
          "type": "address"
        }
      ],
      "name": "isApprovedForAll",
      "outputs": [
        {
          "internalType": "bool",
          "name": "",
          "type": "bool"
        }
      ],
      "stateMutability": "view",
      "type": "function"
    },
    {
      "inputs": [],
      "name": "name",
      "outputs": [
        {
          "internalType": "string",
          "name": "",
          "type": "string"
        }
      ],
      "stateMutability": "view",
      "type": "function"
    },
    {
      "inputs": [
        {
          "internalType": "uint256",
          "name": "tokenId",
          "type": "uint256"
        }
      ],
      "name": "ownerOf",
      "outputs": [
        {
          "internalType": "address",
          "name": "",
          "type": "address"
        }
      ],
      "stateMutability": "view",
      "type": "function"
    },
    {
      "inputs": [
        {
          "internalType": "string",
          "name": "name_",
          "type": "string"
        },
        {
          "internalType": "string",
          "name": "addr_",
          "type": "string"
        },
        {
          "internalType": "string",
          "name": "owner_",
          "type": "string"
        },
        {
          "internalType": "string",
          "name": "categories_",
          "type": "string"
        },
        {
          "internalType": "string",
          "name": "tokenURI_",
          "type": "string"
        }
      ],
      "name": "registerSuppleir",
      "outputs": [],
      "stateMutability": "nonpayable",
      "type": "function"
    },
    {
      "inputs": [
        {
          "internalType": "uint256",
          "name": "tokenId_",
          "type": "uint256"
        }
      ],
      "name": "removeSuppleir",
      "outputs": [],
      "stateMutability": "nonpayable",
      "type": "function"
    },
    {
      "inputs": [
        {
          "internalType": "address",
          "name": "from",
          "type": "address"
        },
        {
          "internalType": "address",
          "name": "to",
          "type": "address"
        },
        {
          "internalType": "uint256",
          "name": "tokenId",
          "type": "uint256"
        }
      ],
      "name": "safeTransferFrom",
      "outputs": [],
      "stateMutability": "nonpayable",
      "type": "function"
    },
    {
      "inputs": [
        {
          "internalType": "address",
          "name": "from",
          "type": "address"
        },
        {
          "internalType": "address",
          "name": "to",
          "type": "address"
        },
        {
          "internalType": "uint256",
          "name": "tokenId",
          "type": "uint256"
        },
        {
          "internalType": "bytes",
          "name": "data",
          "type": "bytes"
        }
      ],
      "name": "safeTransferFrom",
      "outputs": [],
      "stateMutability": "nonpayable",
      "type": "function"
    },
    {
      "inputs": [
        {
          "internalType": "address",
          "name": "operator",
          "type": "address"
        },
        {
          "internalType": "bool",
          "name": "approved",
          "type": "bool"
        }
      ],
      "name": "setApprovalForAll",
      "outputs": [],
      "stateMutability": "nonpayable",
      "type": "function"
    },
    {
      "inputs": [
        {
          "internalType": "bytes4",
          "name": "interfaceId",
          "type": "bytes4"
        }
      ],
      "name": "supportsInterface",
      "outputs": [
        {
          "internalType": "bool",
          "name": "",
          "type": "bool"
        }
      ],
      "stateMutability": "view",
      "type": "function"
    },
    {
      "inputs": [],
      "name": "symbol",
      "outputs": [
        {
          "internalType": "string",
          "name": "",
          "type": "string"
        }
      ],
      "stateMutability": "view",
      "type": "function"
    },
    {
      "inputs": [
        {
          "internalType": "uint256",
          "name": "tokenId",
          "type": "uint256"
        }
      ],
      "name": "tokenURI",
      "outputs": [
        {
          "internalType": "string",
          "name": "",
          "type": "string"
        }
      ],
      "stateMutability": "view",
      "type": "function"
    },
    {
      "inputs": [
        {
          "internalType": "address",
          "name": "from",
          "type": "address"
        },
        {
          "internalType": "address",
          "name": "to",
          "type": "address"
        },
        {
          "internalType": "uint256",
          "name": "tokenId",
          "type": "uint256"
        }
      ],
      "name": "transferFrom",
      "outputs": [],
      "stateMutability": "nonpayable",
      "type": "function"
    },
    {
      "inputs": [
        {
          "internalType": "uint256",
          "name": "tokenId_",
          "type": "uint256"
        },
        {
          "internalType": "string",
          "name": "name_",
          "type": "string"
        },
        {
          "internalType": "string",
          "name": "addr_",
          "type": "string"
        },
        {
          "internalType": "string",
          "name": "owner_",
          "type": "string"
        },
        {
          "internalType": "string",
          "name": "categories_",
          "type": "string"
        },
        {
          "internalType": "string",
          "name": "tokenURI_",
          "type": "string"
        }
      ],
      "name": "updateSuppleirProfile",
      "outputs": [],
      "stateMutability": "nonpayable",
      "type": "function"
    }
  ],
  "bytecode": {
    "object": "0x60806040523480156200001157600080fd5b506040805180820182526012815271537570706c65697227732070726f66696c6560701b60208083019182528351808501909452600384526229a82360e91b908401528151919291620000679160009162000086565b5080516200007d90600190602084019062000086565b50505062000169565b82805462000094906200012c565b90600052602060002090601f016020900481019282620000b8576000855562000103565b82601f10620000d357805160ff191683800117855562000103565b8280016001018555821562000103579182015b8281111562000103578251825591602001919060010190620000e6565b506200011192915062000115565b5090565b5b8082111562000111576000815560010162000116565b600181811c908216806200014157607f821691505b602082108114156200016357634e487b7160e01b600052602260045260246000fd5b50919050565b6122e980620001796000396000f3fe608060405234801561001057600080fd5b50600436106101165760003560e01c806356dda0fe116100a2578063a22cb46511610071578063a22cb46514610249578063b88d4fde1461025c578063c87b56dd1461026f578063e985e9c514610282578063ecf1e2f11461029557600080fd5b806356dda0fe146102085780636352211e1461021b57806370a082311461022e57806395d89b411461024157600080fd5b806311cf2c6f116100e957806311cf2c6f146101985780631bb3bbe7146101b957806323b872dd146101cf57806342842e0e146101e257806344d5bad5146101f557600080fd5b806301ffc9a71461011b57806306fdde0314610143578063081812fc14610158578063095ea7b314610183575b600080fd5b61012e610129366004611cb8565b6102a8565b60405190151581526020015b60405180910390f35b61014b6102fa565b60405161013a919061202c565b61016b610166366004611dc4565b61038c565b6040516001600160a01b03909116815260200161013a565b610196610191366004611c8e565b6103b3565b005b6101ab6101a6366004611dc4565b6104ce565b60405161013a929190612123565b6101c16107d7565b60405190815260200161013a565b6101966101dd366004611b9a565b610839565b6101966101f0366004611b9a565b61086a565b610196610203366004611dc4565b610885565b610196610216366004611ddd565b610a19565b61016b610229366004611dc4565b610ba3565b6101c161023c366004611b4c565b610c03565b61014b610c89565b610196610257366004611c52565b610c98565b61019661026a366004611bd6565b610ca7565b61014b61027d366004611dc4565b610cdf565b61012e610290366004611b67565b610df0565b6101966102a3366004611cf2565b610e1e565b60006001600160e01b031982166380ac58cd60e01b14806102d957506001600160e01b03198216635b5e139f60e01b145b806102f457506301ffc9a760e01b6001600160e01b03198316145b92915050565b6060600080546103099061221b565b80601f01602080910402602001604051908101604052809291908181526020018280546103359061221b565b80156103825780601f1061035757610100808354040283529160200191610382565b820191906000526020600020905b81548152906001019060200180831161036557829003601f168201915b5050505050905090565b600061039782610f97565b506000908152600460205260409020546001600160a01b031690565b60006103be82610ba3565b9050806001600160a01b0316836001600160a01b031614156104315760405162461bcd60e51b815260206004820152602160248201527f4552433732313a20617070726f76616c20746f2063757272656e74206f776e656044820152603960f91b60648201526084015b60405180910390fd5b336001600160a01b038216148061044d575061044d8133610df0565b6104bf5760405162461bcd60e51b815260206004820152603d60248201527f4552433732313a20617070726f76652063616c6c6572206973206e6f7420746f60448201527f6b656e206f776e6572206f7220617070726f76656420666f7220616c6c0000006064820152608401610428565b6104c98383610ff9565b505050565b6105006040518060a0016040528060608152602001606081526020016060815260200160608152602001600081525090565b606060008311801561051457506007548311155b6105555760405162461bcd60e51b815260206004820152601260248201527114dd5c1c1b195a5c881b9bdd08199bdd5b9960721b6044820152606401610428565b600083815260086020526040808220815160a0810190925280548290829061057c9061221b565b80601f01602080910402602001604051908101604052809291908181526020018280546105a89061221b565b80156105f55780601f106105ca576101008083540402835291602001916105f5565b820191906000526020600020905b8154815290600101906020018083116105d857829003601f168201915b5050505050815260200160018201805461060e9061221b565b80601f016020809104026020016040519081016040528092919081815260200182805461063a9061221b565b80156106875780601f1061065c57610100808354040283529160200191610687565b820191906000526020600020905b81548152906001019060200180831161066a57829003601f168201915b505050505081526020016002820180546106a09061221b565b80601f01602080910402602001604051908101604052809291908181526020018280546106cc9061221b565b80156107195780601f106106ee57610100808354040283529160200191610719565b820191906000526020600020905b8154815290600101906020018083116106fc57829003601f168201915b505050505081526020016003820180546107329061221b565b80601f016020809104026020016040519081016040528092919081815260200182805461075e9061221b565b80156107ab5780601f10610780576101008083540402835291602001916107ab565b820191906000526020600020905b81548152906001019060200180831161078e57829003601f168201915b50505050508152602001600482015481525050905060006107cb85610cdf565b91959194509092505050565b33600090815260096020526040812054806108345760405162461bcd60e51b815260206004820152601b60248201527f546869732061646472657373206e6f74207265676973746572656400000000006044820152606401610428565b919050565b6108433382611067565b61085f5760405162461bcd60e51b81526004016104289061203f565b6104c98383836110c5565b6104c983838360405180602001604052806000815250610ca7565b60008111801561089757506007548111155b6108e35760405162461bcd60e51b815260206004820152601a60248201527f537570706c6569722050726f66696c65206e6f7420666f756e640000000000006044820152606401610428565b60006108ee82610ba3565b9050336001600160a01b038216148061091757503361090c8361038c565b6001600160a01b0316145b8061092757506109278133610df0565b61096a5760405162461bcd60e51b81526020600482015260146024820152734e6f7420616c6c6f77656420666f7220796f752160601b6044820152606401610428565b61097382611236565b6001600160a01b0381166000908152600960209081526040808320839055848352600890915290819020905183907f2c2bd82b05c6fc6c72ed61bd70454b81cd6bb192d7a42ab6aff5cd31dc50b87d906109d09033908590611f73565b60405180910390a26109e38160006119cc565b6109f16001820160006119cc565b6109ff6003820160006119cc565b610a0d6002820160006119cc565b60006004909101555050565b600086118015610a2b57506007548611155b610a685760405162461bcd60e51b815260206004820152600e60248201526d139bdd08149959da5cdd195c995960921b6044820152606401610428565b6000610a7387610ba3565b9050336001600160a01b0382161480610a9c575033610a918861038c565b6001600160a01b0316145b80610aac5750610aac8133610df0565b610aef5760405162461bcd60e51b81526020600482015260146024820152734e6f7420616c6c6f77656420666f7220796f752160601b6044820152606401610428565b600087815260086020908152604090912086519091610b15916001840191890190611a06565b508651610b2890829060208a0190611a06565b508451610b3e9060028301906020880190611a06565b508351610b549060038301906020870190611a06565b50610b5f8884611276565b877f6a494787553f4892e4a934d3c1da0815a650b79698162e9db816f443839dad453389604051610b91929190611f4f565b60405180910390a25050505050505050565b6000818152600260205260408120546001600160a01b0316806102f45760405162461bcd60e51b8152602060048201526018602482015277115490cdcc8c4e881a5b9d985b1a59081d1bdad95b88125160421b6044820152606401610428565b60006001600160a01b038216610c6d5760405162461bcd60e51b815260206004820152602960248201527f4552433732313a2061646472657373207a65726f206973206e6f7420612076616044820152683634b21037bbb732b960b91b6064820152608401610428565b506001600160a01b031660009081526003602052604090205490565b6060600180546103099061221b565b610ca3338383611310565b5050565b610cb13383611067565b610ccd5760405162461bcd60e51b81526004016104289061203f565b610cd9848484846113df565b50505050565b6060610cea82610f97565b60008281526006602052604081208054610d039061221b565b80601f0160208091040260200160405190810160405280929190818152602001828054610d2f9061221b565b8015610d7c5780601f10610d5157610100808354040283529160200191610d7c565b820191906000526020600020905b815481529060010190602001808311610d5f57829003601f168201915b505050505090506000610d9a60408051602081019091526000815290565b9050805160001415610dad575092915050565b815115610ddf578082604051602001610dc7929190611ee3565b60405160208183030381529060405292505050919050565b610de884611412565b949350505050565b6001600160a01b03918216600090815260056020908152604080832093909416825291909152205460ff1690565b610e2733610c03565b15610e695760405162461bcd60e51b8152602060048201526012602482015271105b1c9958591e48149959da5cdd195c995960721b6044820152606401610428565b60078054906000610e7983612256565b90915550506040805160a081018252868152602080820187905281830186905260608201859052426080830152600754600090815260088252929092208151805192938493610ecb9284920190611a06565b506020828101518051610ee49260018501920190611a06565b5060408201518051610f00916002840191602090910190611a06565b5060608201518051610f1c916003840191602090910190611a06565b5060808201518160040155905050610f3633600754611486565b610f4260075483611276565b6007543360008181526009602052604090819020839055517f2ecd52fc76963e698d74dd4de28fe617a8525f22fc328532368c6be168b8fd2591610f87918a90611f4f565b60405180910390a2505050505050565b6000818152600260205260409020546001600160a01b0316610ff65760405162461bcd60e51b8152602060048201526018602482015277115490cdcc8c4e881a5b9d985b1a59081d1bdad95b88125160421b6044820152606401610428565b50565b600081815260046020526040902080546001600160a01b0319166001600160a01b038416908117909155819061102e82610ba3565b6001600160a01b03167f8c5be1e5ebec7d5bd14f71427d1e84f3dd0314c0f7b2291e5b200ac8c7c3b92560405160405180910390a45050565b60008061107383610ba3565b9050806001600160a01b0316846001600160a01b0316148061109a575061109a8185610df0565b80610de85750836001600160a01b03166110b38461038c565b6001600160a01b031614949350505050565b826001600160a01b03166110d882610ba3565b6001600160a01b0316146110fe5760405162461bcd60e51b8152600401610428906120de565b6001600160a01b0382166111605760405162461bcd60e51b8152602060048201526024808201527f4552433732313a207472616e7366657220746f20746865207a65726f206164646044820152637265737360e01b6064820152608401610428565b61116d838383600161161f565b826001600160a01b031661118082610ba3565b6001600160a01b0316146111a65760405162461bcd60e51b8152600401610428906120de565b600081815260046020908152604080832080546001600160a01b03199081169091556001600160a01b0387811680865260038552838620805460001901905590871680865283862080546001019055868652600290945282852080549092168417909155905184937fddf252ad1be2c89b69c2b068fc378daa952ba7f163c4a11628f55a4df523b3ef91a4505050565b61123f816116a7565b600081815260066020526040902080546112589061221b565b159050610ff6576000818152600660205260408120610ff6916119cc565b6000828152600260205260409020546001600160a01b03166112f15760405162461bcd60e51b815260206004820152602e60248201527f45524337323155524953746f726167653a2055524920736574206f66206e6f6e60448201526d32bc34b9ba32b73a103a37b5b2b760911b6064820152608401610428565b600082815260066020908152604090912082516104c992840190611a06565b816001600160a01b0316836001600160a01b031614156113725760405162461bcd60e51b815260206004820152601960248201527f4552433732313a20617070726f766520746f2063616c6c6572000000000000006044820152606401610428565b6001600160a01b03838116600081815260056020908152604080832094871680845294825291829020805460ff191686151590811790915591519182527f17307eab39ab6107e8899845ad3d59bd9653f200f220920489ca2b5937696c31910160405180910390a3505050565b6113ea8484846110c5565b6113f68484848461174a565b610cd95760405162461bcd60e51b81526004016104289061208c565b606061141d82610f97565b600061143460408051602081019091526000815290565b90506000815111611454576040518060200160405280600081525061147f565b8061145e84611857565b60405160200161146f929190611ee3565b6040516020818303038152906040525b9392505050565b6001600160a01b0382166114dc5760405162461bcd60e51b815260206004820181905260248201527f4552433732313a206d696e7420746f20746865207a65726f20616464726573736044820152606401610428565b6000818152600260205260409020546001600160a01b0316156115415760405162461bcd60e51b815260206004820152601c60248201527f4552433732313a20746f6b656e20616c7265616479206d696e746564000000006044820152606401610428565b61154f60008383600161161f565b6000818152600260205260409020546001600160a01b0316156115b45760405162461bcd60e51b815260206004820152601c60248201527f4552433732313a20746f6b656e20616c7265616479206d696e746564000000006044820152606401610428565b6001600160a01b038216600081815260036020908152604080832080546001019055848352600290915280822080546001600160a01b0319168417905551839291907fddf252ad1be2c89b69c2b068fc378daa952ba7f163c4a11628f55a4df523b3ef908290a45050565b6001811115610cd9576001600160a01b03841615611665576001600160a01b0384166000908152600360205260408120805483929061165f9084906121d8565b90915550505b6001600160a01b03831615610cd9576001600160a01b0383166000908152600360205260408120805483929061169c9084906121c0565b909155505050505050565b60006116b282610ba3565b90506116c281600084600161161f565b6116cb82610ba3565b600083815260046020908152604080832080546001600160a01b03199081169091556001600160a01b0385168085526003845282852080546000190190558785526002909352818420805490911690555192935084927fddf252ad1be2c89b69c2b068fc378daa952ba7f163c4a11628f55a4df523b3ef908390a45050565b60006001600160a01b0384163b1561184c57604051630a85bd0160e11b81526001600160a01b0385169063150b7a029061178e903390899088908890600401611f12565b602060405180830381600087803b1580156117a857600080fd5b505af19250505080156117d8575060408051601f3d908101601f191682019092526117d591810190611cd5565b60015b611832573d808015611806576040519150601f19603f3d011682016040523d82523d6000602084013e61180b565b606091505b50805161182a5760405162461bcd60e51b81526004016104289061208c565b805181602001fd5b6001600160e01b031916630a85bd0160e11b149050610de8565b506001949350505050565b60606000611864836118f4565b600101905060008167ffffffffffffffff81111561188457611884612287565b6040519080825280601f01601f1916602001820160405280156118ae576020820181803683370190505b5090508181016020015b600019016f181899199a1a9b1b9c1cb0b131b232b360811b600a86061a8153600a85049450846118e7576118ec565b6118b8565b509392505050565b60008072184f03e93ff9f4daa797ed6e38ed64bf6a1f0160401b83106119335772184f03e93ff9f4daa797ed6e38ed64bf6a1f0160401b830492506040015b6d04ee2d6d415b85acef8100000000831061195f576d04ee2d6d415b85acef8100000000830492506020015b662386f26fc10000831061197d57662386f26fc10000830492506010015b6305f5e1008310611995576305f5e100830492506008015b61271083106119a957612710830492506004015b606483106119bb576064830492506002015b600a83106102f45760010192915050565b5080546119d89061221b565b6000825580601f106119e8575050565b601f016020900490600052602060002090810190610ff69190611a8a565b828054611a129061221b565b90600052602060002090601f016020900481019282611a345760008555611a7a565b82601f10611a4d57805160ff1916838001178555611a7a565b82800160010185558215611a7a579182015b82811115611a7a578251825591602001919060010190611a5f565b50611a86929150611a8a565b5090565b5b80821115611a865760008155600101611a8b565b600067ffffffffffffffff80841115611aba57611aba612287565b604051601f8501601f19908116603f01168101908282118183101715611ae257611ae2612287565b81604052809350858152868686011115611afb57600080fd5b858560208301376000602087830101525050509392505050565b80356001600160a01b038116811461083457600080fd5b600082601f830112611b3d57600080fd5b61147f83833560208501611a9f565b600060208284031215611b5e57600080fd5b61147f82611b15565b60008060408385031215611b7a57600080fd5b611b8383611b15565b9150611b9160208401611b15565b90509250929050565b600080600060608486031215611baf57600080fd5b611bb884611b15565b9250611bc660208501611b15565b9150604084013590509250925092565b60008060008060808587031215611bec57600080fd5b611bf585611b15565b9350611c0360208601611b15565b925060408501359150606085013567ffffffffffffffff811115611c2657600080fd5b8501601f81018713611c3757600080fd5b611c4687823560208401611a9f565b91505092959194509250565b60008060408385031215611c6557600080fd5b611c6e83611b15565b915060208301358015158114611c8357600080fd5b809150509250929050565b60008060408385031215611ca157600080fd5b611caa83611b15565b946020939093013593505050565b600060208284031215611cca57600080fd5b813561147f8161229d565b600060208284031215611ce757600080fd5b815161147f8161229d565b600080600080600060a08688031215611d0a57600080fd5b853567ffffffffffffffff80821115611d2257600080fd5b611d2e89838a01611b2c565b96506020880135915080821115611d4457600080fd5b611d5089838a01611b2c565b95506040880135915080821115611d6657600080fd5b611d7289838a01611b2c565b94506060880135915080821115611d8857600080fd5b611d9489838a01611b2c565b93506080880135915080821115611daa57600080fd5b50611db788828901611b2c565b9150509295509295909350565b600060208284031215611dd657600080fd5b5035919050565b60008060008060008060c08789031215611df657600080fd5b86359550602087013567ffffffffffffffff80821115611e1557600080fd5b611e218a838b01611b2c565b96506040890135915080821115611e3757600080fd5b611e438a838b01611b2c565b95506060890135915080821115611e5957600080fd5b611e658a838b01611b2c565b94506080890135915080821115611e7b57600080fd5b611e878a838b01611b2c565b935060a0890135915080821115611e9d57600080fd5b50611eaa89828a01611b2c565b9150509295509295509295565b60008151808452611ecf8160208601602086016121ef565b601f01601f19169290920160200192915050565b60008351611ef58184602088016121ef565b835190830190611f098183602088016121ef565b01949350505050565b6001600160a01b0385811682528416602082015260408101839052608060608201819052600090611f4590830184611eb7565b9695505050505050565b6001600160a01b0383168152604060208201819052600090610de890830184611eb7565b60018060a01b0383168152600060206040818401526000845481600182811c915080831680611fa357607f831692505b858310811415611fc157634e487b7160e01b85526022600452602485fd5b6040880183905260608801818015611fe05760018114611ff15761201c565b60ff1986168252878201965061201c565b60008b81526020902060005b8681101561201657815484820152908501908901611ffd565b83019750505b50949a9950505050505050505050565b60208152600061147f6020830184611eb7565b6020808252602d908201527f4552433732313a2063616c6c6572206973206e6f7420746f6b656e206f776e6560408201526c1c881bdc88185c1c1c9bdd9959609a1b606082015260800190565b60208082526032908201527f4552433732313a207472616e7366657220746f206e6f6e20455243373231526560408201527131b2b4bb32b91034b6b83632b6b2b73a32b960711b606082015260800190565b60208082526025908201527f4552433732313a207472616e736665722066726f6d20696e636f72726563742060408201526437bbb732b960d91b606082015260800190565b604081526000835160a0604084015261213f60e0840182611eb7565b90506020850151603f198085840301606086015261215d8383611eb7565b9250604087015191508085840301608086015261217a8383611eb7565b925060608701519150808584030160a0860152506121988282611eb7565b915050608085015160c084015282810360208401526121b78185611eb7565b95945050505050565b600082198211156121d3576121d3612271565b500190565b6000828210156121ea576121ea612271565b500390565b60005b8381101561220a5781810151838201526020016121f2565b83811115610cd95750506000910152565b600181811c9082168061222f57607f821691505b6020821081141561225057634e487b7160e01b600052602260045260246000fd5b50919050565b600060001982141561226a5761226a612271565b5060010190565b634e487b7160e01b600052601160045260246000fd5b634e487b7160e01b600052604160045260246000fd5b6001600160e01b031981168114610ff657600080fdfea2646970667358221220aeaa04f1fb245eda01f5fd78811b9e8763cd82c62a5ba95d1cce2271946fec1c64736f6c63430008070033",
    "linkReferences": {}
  },
  "methodIdentifiers": {
    "approve(address,uint256)": "095ea7b3",
    "balanceOf(address)": "70a08231",
    "getApproved(uint256)": "081812fc",
    "getSuppleirProfile(uint256)": "11cf2c6f",
    "getYourId()": "1bb3bbe7",
    "isApprovedForAll(address,address)": "e985e9c5",
    "name()": "06fdde03",
    "ownerOf(uint256)": "6352211e",
    "registerSuppleir(string,string,string,string,string)": "ecf1e2f1",
    "removeSuppleir(uint256)": "44d5bad5",
    "safeTransferFrom(address,address,uint256)": "42842e0e",
    "safeTransferFrom(address,address,uint256,bytes)": "b88d4fde",
    "setApprovalForAll(address,bool)": "a22cb465",
    "supportsInterface(bytes4)": "01ffc9a7",
    "symbol()": "95d89b41",
    "tokenURI(uint256)": "c87b56dd",
    "transferFrom(address,address,uint256)": "23b872dd",
    "updateSuppleirProfile(uint256,string,string,string,string,string)": "56dda0fe"
  },
  "id": 21
}