{
  "abi": [
    {
      "inputs": [
        {
          "internalType": "address",
          "name": "organizationAddress_",
          "type": "address"
        },
        {
          "internalType": "address",
          "name": "suppleirAddress_",
          "type": "address"
        },
        {
          "internalType": "address",
          "name": "verifierAddress_",
          "type": "address"
        }
      ],
      "stateMutability": "nonpayable",
      "type": "constructor"
    },
    {
      "anonymous": false,
      "inputs": [
        {
          "indexed": true,
          "internalType": "uint256",
          "name": "tenderId",
          "type": "uint256"
        },
        {
          "indexed": true,
          "internalType": "uint256",
          "name": "suppleirId",
          "type": "uint256"
        },
        {
          "indexed": false,
          "internalType": "enum Tenders.Status",
          "name": "status",
          "type": "uint8"
        }
      ],
      "name": "BidStatusChanged",
      "type": "event"
    },
    {
      "anonymous": false,
      "inputs": [
        {
          "indexed": true,
          "internalType": "uint256",
          "name": "tenderId",
          "type": "uint256"
        },
        {
          "indexed": true,
          "internalType": "uint256",
          "name": "suppleirId",
          "type": "uint256"
        }
      ],
      "name": "BidVerified",
      "type": "event"
    },
    {
      "anonymous": false,
      "inputs": [
        {
          "indexed": true,
          "internalType": "uint256",
          "name": "tenderId",
          "type": "uint256"
        },
        {
          "indexed": true,
          "internalType": "uint256",
          "name": "suppleirId",
          "type": "uint256"
        }
      ],
      "name": "FundReturned",
      "type": "event"
    },
    {
      "anonymous": false,
      "inputs": [
        {
          "indexed": true,
          "internalType": "uint256",
          "name": "tenderId",
          "type": "uint256"
        },
        {
          "indexed": true,
          "internalType": "uint256",
          "name": "suppleirId",
          "type": "uint256"
        }
      ],
      "name": "NewBidAdded",
      "type": "event"
    },
    {
      "anonymous": false,
      "inputs": [
        {
          "indexed": true,
          "internalType": "uint256",
          "name": "orgId",
          "type": "uint256"
        },
        {
          "indexed": true,
          "internalType": "uint256",
          "name": "tenderId",
          "type": "uint256"
        },
        {
          "indexed": true,
          "internalType": "uint256",
          "name": "bidEndDate",
          "type": "uint256"
        },
        {
          "indexed": false,
          "internalType": "uint256",
          "name": "verifyingEndDate",
          "type": "uint256"
        }
      ],
      "name": "NewTenderCreated",
      "type": "event"
    },
    {
      "anonymous": false,
      "inputs": [
        {
          "indexed": false,
          "internalType": "uint8",
          "name": "type_",
          "type": "uint8"
        },
        {
          "indexed": false,
          "internalType": "uint256",
          "name": "fee",
          "type": "uint256"
        }
      ],
      "name": "PlatformFeeUpdated",
      "type": "event"
    },
    {
      "anonymous": false,
      "inputs": [
        {
          "indexed": true,
          "internalType": "uint256",
          "name": "tenderId",
          "type": "uint256"
        },
        {
          "indexed": false,
          "internalType": "bool",
          "name": "isPaused",
          "type": "bool"
        }
      ],
      "name": "TenderStatus",
      "type": "event"
    },
    {
      "anonymous": false,
      "inputs": [
        {
          "indexed": true,
          "internalType": "uint256",
          "name": "tenderId",
          "type": "uint256"
        },
        {
          "indexed": true,
          "internalType": "uint256",
          "name": "suppleirId",
          "type": "uint256"
        },
        {
          "indexed": true,
          "internalType": "uint256",
          "name": "winningValue",
          "type": "uint256"
        }
      ],
      "name": "WinnerAnnounced",
      "type": "event"
    },
    {
      "inputs": [
        {
          "internalType": "uint256",
          "name": "tenderId_",
          "type": "uint256"
        }
      ],
      "name": "announceWinner",
      "outputs": [],
      "stateMutability": "nonpayable",
      "type": "function"
    },
    {
      "inputs": [
        {
          "internalType": "uint256",
          "name": "tenderId_",
          "type": "uint256"
        },
        {
          "internalType": "uint256",
          "name": "suppleirId_",
          "type": "uint256"
        },
        {
          "internalType": "enum Tenders.Status",
          "name": "status_",
          "type": "uint8"
        }
      ],
      "name": "approveOrDeclineBid",
      "outputs": [],
      "stateMutability": "nonpayable",
      "type": "function"
    },
    {
      "inputs": [
        {
          "internalType": "uint256",
          "name": "suppleirId_",
          "type": "uint256"
        },
        {
          "internalType": "uint256",
          "name": "tenderId_",
          "type": "uint256"
        },
        {
          "internalType": "uint256",
          "name": "proof_",
          "type": "uint256"
        }
      ],
      "name": "bid",
      "outputs": [],
      "stateMutability": "payable",
      "type": "function"
    },
    {
      "inputs": [],
      "name": "bidPlatformFee",
      "outputs": [
        {
          "internalType": "uint256",
          "name": "",
          "type": "uint256"
        }
      ],
      "stateMutability": "view",
      "type": "function"
    },
    {
      "inputs": [
        {
          "internalType": "uint256",
          "name": "orgId_",
          "type": "uint256"
        },
        {
          "internalType": "string",
          "name": "tenderURI_",
          "type": "string"
        },
        {
          "internalType": "uint256",
          "name": "bidPeriod",
          "type": "uint256"
        },
        {
          "internalType": "uint256",
          "name": "verifyingPeriod",
          "type": "uint256"
        }
      ],
      "name": "createNewTender",
      "outputs": [],
      "stateMutability": "payable",
      "type": "function"
    },
    {
      "inputs": [],
      "name": "getAllTenders",
      "outputs": [
        {
          "components": [
            {
              "internalType": "uint256",
              "name": "organizationId",
              "type": "uint256"
            },
            {
              "internalType": "string",
              "name": "tenderURI",
              "type": "string"
            },
            {
              "internalType": "uint256",
              "name": "Id",
              "type": "uint256"
            },
            {
              "internalType": "enum Tenders.Stages",
              "name": "stage",
              "type": "uint8"
            },
            {
              "internalType": "uint256",
              "name": "bidStartTime",
              "type": "uint256"
            },
            {
              "internalType": "uint256",
              "name": "bidEndTime",
              "type": "uint256"
            },
            {
              "internalType": "uint256",
              "name": "verifyingTime",
              "type": "uint256"
            },
            {
              "components": [
                {
                  "internalType": "uint256",
                  "name": "suppleirId",
                  "type": "uint256"
                },
                {
                  "internalType": "uint256",
                  "name": "winningValue",
                  "type": "uint256"
                }
              ],
              "internalType": "struct Tenders.Winner",
              "name": "winner",
              "type": "tuple"
            },
            {
              "internalType": "bool",
              "name": "isPaused",
              "type": "bool"
            },
            {
              "internalType": "uint256",
              "name": "fee",
              "type": "uint256"
            }
          ],
          "internalType": "struct Tenders.Tender[]",
          "name": "",
          "type": "tuple[]"
        }
      ],
      "stateMutability": "view",
      "type": "function"
    },
    {
      "inputs": [
        {
          "internalType": "uint256",
          "name": "suppleirId_",
          "type": "uint256"
        }
      ],
      "name": "getAllYourBids",
      "outputs": [
        {
          "internalType": "uint256[]",
          "name": "",
          "type": "uint256[]"
        }
      ],
      "stateMutability": "view",
      "type": "function"
    },
    {
      "inputs": [
        {
          "internalType": "uint256",
          "name": "tenderId_",
          "type": "uint256"
        }
      ],
      "name": "getListOfbidders",
      "outputs": [
        {
          "internalType": "uint256[]",
          "name": "",
          "type": "uint256[]"
        }
      ],
      "stateMutability": "view",
      "type": "function"
    },
    {
      "inputs": [],
      "name": "getProfitGenerated",
      "outputs": [
        {
          "internalType": "uint256",
          "name": "",
          "type": "uint256"
        }
      ],
      "stateMutability": "view",
      "type": "function"
    },
    {
      "inputs": [
        {
          "internalType": "uint256",
          "name": "tenderId_",
          "type": "uint256"
        }
      ],
      "name": "getTender",
      "outputs": [
        {
          "components": [
            {
              "internalType": "uint256",
              "name": "organizationId",
              "type": "uint256"
            },
            {
              "internalType": "string",
              "name": "tenderURI",
              "type": "string"
            },
            {
              "internalType": "uint256",
              "name": "Id",
              "type": "uint256"
            },
            {
              "internalType": "enum Tenders.Stages",
              "name": "stage",
              "type": "uint8"
            },
            {
              "internalType": "uint256",
              "name": "bidStartTime",
              "type": "uint256"
            },
            {
              "internalType": "uint256",
              "name": "bidEndTime",
              "type": "uint256"
            },
            {
              "internalType": "uint256",
              "name": "verifyingTime",
              "type": "uint256"
            },
            {
              "components": [
                {
                  "internalType": "uint256",
                  "name": "suppleirId",
                  "type": "uint256"
                },
                {
                  "internalType": "uint256",
                  "name": "winningValue",
                  "type": "uint256"
                }
              ],
              "internalType": "struct Tenders.Winner",
              "name": "winner",
              "type": "tuple"
            },
            {
              "internalType": "bool",
              "name": "isPaused",
              "type": "bool"
            },
            {
              "internalType": "uint256",
              "name": "fee",
              "type": "uint256"
            }
          ],
          "internalType": "struct Tenders.Tender",
          "name": "",
          "type": "tuple"
        }
      ],
      "stateMutability": "view",
      "type": "function"
    },
    {
      "inputs": [
        {
          "internalType": "uint256",
          "name": "tenderId_",
          "type": "uint256"
        }
      ],
      "name": "getWinner",
      "outputs": [
        {
          "components": [
            {
              "internalType": "uint256",
              "name": "suppleirId",
              "type": "uint256"
            },
            {
              "internalType": "uint256",
              "name": "winningValue",
              "type": "uint256"
            }
          ],
          "internalType": "struct Tenders.Winner",
          "name": "",
          "type": "tuple"
        }
      ],
      "stateMutability": "view",
      "type": "function"
    },
    {
      "inputs": [
        {
          "internalType": "uint256",
          "name": "tenderId_",
          "type": "uint256"
        },
        {
          "internalType": "uint256",
          "name": "suppleirId_",
          "type": "uint256"
        }
      ],
      "name": "getYourBid",
      "outputs": [
        {
          "components": [
            {
              "internalType": "uint256",
              "name": "proof",
              "type": "uint256"
            },
            {
              "internalType": "uint256",
              "name": "value",
              "type": "uint256"
            },
            {
              "internalType": "enum Tenders.Status",
              "name": "status",
              "type": "uint8"
            },
            {
              "internalType": "bool",
              "name": "claimable",
              "type": "bool"
            },
            {
              "internalType": "uint256",
              "name": "fee",
              "type": "uint256"
            }
          ],
          "internalType": "struct Tenders.Bid",
          "name": "",
          "type": "tuple"
        }
      ],
      "stateMutability": "view",
      "type": "function"
    },
    {
      "inputs": [],
      "name": "owner",
      "outputs": [
        {
          "internalType": "address",
          "name": "",
          "type": "address"
        }
      ],
      "stateMutability": "view",
      "type": "function"
    },
    {
      "inputs": [
        {
          "internalType": "uint256",
          "name": "tenderId_",
          "type": "uint256"
        }
      ],
      "name": "pauseTender",
      "outputs": [],
      "stateMutability": "nonpayable",
      "type": "function"
    },
    {
      "inputs": [],
      "name": "postPlatformFee",
      "outputs": [
        {
          "internalType": "uint256",
          "name": "",
          "type": "uint256"
        }
      ],
      "stateMutability": "view",
      "type": "function"
    },
    {
      "inputs": [
        {
          "internalType": "uint256",
          "name": "tenderId_",
          "type": "uint256"
        },
        {
          "internalType": "uint256",
          "name": "bidPeriod",
          "type": "uint256"
        },
        {
          "internalType": "uint256",
          "name": "verifyingPeriod",
          "type": "uint256"
        }
      ],
      "name": "restartTender",
      "outputs": [],
      "stateMutability": "nonpayable",
      "type": "function"
    },
    {
      "inputs": [
        {
          "internalType": "uint256",
          "name": "tenderId_",
          "type": "uint256"
        },
        {
          "internalType": "uint256",
          "name": "suppleirId_",
          "type": "uint256"
        }
      ],
      "name": "returnFunds",
      "outputs": [],
      "stateMutability": "nonpayable",
      "type": "function"
    },
    {
      "inputs": [
        {
          "internalType": "uint8",
          "name": "type_",
          "type": "uint8"
        },
        {
          "internalType": "uint256",
          "name": "fee",
          "type": "uint256"
        }
      ],
      "name": "updatePlatformFee",
      "outputs": [],
      "stateMutability": "nonpayable",
      "type": "function"
    },
    {
      "inputs": [
        {
          "internalType": "uint256[2]",
          "name": "a",
          "type": "uint256[2]"
        },
        {
          "internalType": "uint256[2][2]",
          "name": "b",
          "type": "uint256[2][2]"
        },
        {
          "internalType": "uint256[2]",
          "name": "c",
          "type": "uint256[2]"
        },
        {
          "internalType": "uint256[4]",
          "name": "input",
          "type": "uint256[4]"
        }
      ],
      "name": "verifyBid",
      "outputs": [],
      "stateMutability": "nonpayable",
      "type": "function"
    },
    {
      "inputs": [
        {
          "internalType": "uint256",
          "name": "amount",
          "type": "uint256"
        }
      ],
      "name": "withdrawProfit",
      "outputs": [],
      "stateMutability": "nonpayable",
      "type": "function"
    }
  ],
  "bytecode": {
    "object": "0x60806040523480156200001157600080fd5b5060405162002f6c38038062002f6c8339810160408190526200003491620000ae565b600580546001600160a01b039485166001600160a01b03199182161790915560068054938516938216939093179092556007805491909316908216179091556004805490911633179055631dcd65006001819055600055620000f8565b80516001600160a01b0381168114620000a957600080fd5b919050565b600080600060608486031215620000c457600080fd5b620000cf8462000091565b9250620000df6020850162000091565b9150620000ef6040850162000091565b90509250925092565b612e6480620001086000396000f3fe60806040526004361061011f5760003560e01c8063629b3d8e116100a05780639b1e604b116100645780639b1e604b1461033f578063a2b26b701461035f578063d82a2bea1461037f578063da7371bc1461039f578063f221d9e0146103bf57600080fd5b8063629b3d8e1461027857806373322c5f146102a55780637a45b791146102c55780638da5cb5b146102da578063910c66cd1461031257600080fd5b80632a182929116100e75780632a182929146101d85780632ac9bf09146101f857806337cd2f7e1461020b5780633a6e157b1461022b5780634129b2c91461024b57600080fd5b80630585c25e1461012457806306e924b81461015a5780632358c0461461017e578063287ccb8b146101a057806329411b75146101c2575b600080fd5b34801561013057600080fd5b5061014461013f3660046127cf565b6103d2565b6040516101519190612c91565b60405180910390f35b34801561016657600080fd5b5061017060005481565b604051908152602001610151565b34801561018a57600080fd5b50610193610537565b6040516101519190612a94565b3480156101ac57600080fd5b506101c06101bb3660046127cf565b61073b565b005b3480156101ce57600080fd5b5061017060015481565b3480156101e457600080fd5b506101c06101f33660046128f5565b610820565b6101c06102063660046128f5565b610944565b34801561021757600080fd5b506101c0610226366004612896565b610e36565b34801561023757600080fd5b506101c06102463660046127cf565b611168565b34801561025757600080fd5b5061026b6102663660046127cf565b611352565b6040516101519190612ca4565b34801561028457600080fd5b50610298610293366004612896565b61142f565b6040516101519190612c4c565b3480156102b157600080fd5b506101c06102c03660046126bc565b6114d1565b3480156102d157600080fd5b50610170611825565b3480156102e657600080fd5b506004546102fa906001600160a01b031681565b6040516001600160a01b039091168152602001610151565b34801561031e57600080fd5b5061033261032d3660046127cf565b611859565b6040516101519190612b7a565b34801561034b57600080fd5b5061033261035a3660046127cf565b6118bb565b34801561036b57600080fd5b506101c061037a366004612921565b61191b565b34801561038b57600080fd5b506101c061039a3660046127cf565b611a00565b3480156103ab57600080fd5b506101c06103ba3660046128b8565b611b13565b6101c06103cd3660046127e8565b611deb565b6103da6124f0565b60086000838152602001908152602001600020604051806101400160405290816000820154815260200160018201805461041390612d86565b80601f016020809104026020016040519081016040528092919081815260200182805461043f90612d86565b801561048c5780601f106104615761010080835404028352916020019161048c565b820191906000526020600020905b81548152906001019060200180831161046f57829003601f168201915b505050918352505060028201546020820152600382015460409091019060ff1660018111156104bd576104bd612dec565b60018111156104ce576104ce612dec565b815260048201546020808301919091526005830154604080840191909152600684015460608401528051808201909152600784015481526008840154918101919091526080820152600982015460ff16151560a0820152600a9091015460c09091015292915050565b6060600060035467ffffffffffffffff81111561055657610556612e18565b60405190808252806020026020018201604052801561058f57816020015b61057c6124f0565b8152602001906001900390816105745790505b50905060015b60035481116107355760006008600083815260200190815260200160002060405180610140016040529081600082015481526020016001820180546105d990612d86565b80601f016020809104026020016040519081016040528092919081815260200182805461060590612d86565b80156106525780601f1061062757610100808354040283529160200191610652565b820191906000526020600020905b81548152906001019060200180831161063557829003601f168201915b505050918352505060028201546020820152600382015460409091019060ff16600181111561068357610683612dec565b600181111561069457610694612dec565b815260048201546020808301919091526005830154604080840191909152600684015460608401528051808201909152600784015481526008840154918101919091526080820152600982015460ff16151560a0820152600a9091015460c09091015290508083610706600185612d6f565b8151811061071657610716612e02565b602002602001018190525050808061072d90612dbb565b915050610595565b50919050565b8060008111801561074e57506003548111155b6107735760405162461bcd60e51b815260040161076a90612bf4565b60405180910390fd5b6000828152600860205260409020600981015460ff16156107c65760405162461bcd60e51b815260206004820152600d60248201526c15195b99195c881c185d5cd959609a1b604482015260640161076a565b80546107d3600182612006565b60098201805460ff1916600190811790915560405190815284907f386a002e5030bf4979bd546f3d2059ac58b7b2b9c85b64a8313df3076a212e879060200160405180910390a250505050565b8260008111801561083357506003548111155b61084f5760405162461bcd60e51b815260040161076a90612bf4565b6000848152600860205260409020600981015460ff166108a55760405162461bcd60e51b815260206004820152601160248201527015195b99195c881b9bdd081c185d5cd959607a1b604482015260640161076a565b80546108b2600182612006565b6000426108c28762015180612d50565b6108cc9190612d38565b905060006108dd8662015180612d50565b6108e79083612d38565b60098501805460ff1916905560058501839055600685018190556040516000815290915088907f386a002e5030bf4979bd546f3d2059ac58b7b2b9c85b64a8313df3076a212e879060200160405180910390a25050505050505050565b8160008111801561095757506003548111155b6109735760405162461bcd60e51b815260040161076a90612bf4565b61097e600085612006565b6006546040516331a9108f60e11b8152600481018690526000916001600160a01b031690636352211e9060240160206040518083038186803b1580156109c357600080fd5b505afa1580156109d7573d6000803e3d6000fd5b505050506040513d601f19601f820116820180604052508101906109fb919061268c565b6000858152600c602090815260408083206001600160a01b038516845290915290205490915060ff1615610a7b5760405162461bcd60e51b815260206004820152602160248201527f596f7520616c726561647920626964646564206f6e20746869732074656e64656044820152603960f91b606482015260840161076a565b6001543414610ac45760405162461bcd60e51b815260206004820152601560248201527466656520213d20626964506c6174666f726d46656560581b604482015260640161076a565b6000600860008681526020019081526020016000206040518061014001604052908160008201548152602001600182018054610aff90612d86565b80601f0160208091040260200160405190810160405280929190818152602001828054610b2b90612d86565b8015610b785780601f10610b4d57610100808354040283529160200191610b78565b820191906000526020600020905b815481529060010190602001808311610b5b57829003601f168201915b505050918352505060028201546020820152600382015460409091019060ff166001811115610ba957610ba9612dec565b6001811115610bba57610bba612dec565b815260048201546020808301919091526005830154604080840191909152600684015460608401528051808201909152600784015481526008840154918101919091526080820152600982015460ff16151560a0820152600a9091015460c0909101529050600081606001516001811115610c3757610c37612dec565b14610c7c5760405162461bcd60e51b815260206004820152601560248201527415195b99195c88185b1c9958591e4818db1bdcd959605a1b604482015260640161076a565b60a0810151428111610cd05760405162461bcd60e51b815260206004820152601760248201527f42696464696e6720706572696f642066696e6973686564000000000000000000604482015260640161076a565b81610100015115610cf35760405162461bcd60e51b815260040161076a90612bcc565b6000868152600c602090815260408083206001600160a01b038716845282528083208054600160ff199182168117909255825160a0810184528a815280850186815281850187815260608301859052845460808401526003548852600987528588208f89529096529390952085518155925183830155925160028084018054949592949093921691908490811115610d8d57610d8d612dec565b021790555060608201516002820180549115156101000261ff001990921691909117905560809091015160039182015580546000908152600a60209081526040808320805460018181018355918552838520018c90558b8452600b8352818420945485549182018655948452918320909101929092559051889188917ffee37dc8e552b40c74015d0263f9dc624614c01de41cea4fcab18387394655539190a350505050505050565b81600081118015610e4957506003548111155b610e655760405162461bcd60e51b815260040161076a90612bf4565b610e70600083612006565b6000600860008581526020019081526020016000206040518061014001604052908160008201548152602001600182018054610eab90612d86565b80601f0160208091040260200160405190810160405280929190818152602001828054610ed790612d86565b8015610f245780601f10610ef957610100808354040283529160200191610f24565b820191906000526020600020905b815481529060010190602001808311610f0757829003601f168201915b505050918352505060028201546020820152600382015460409091019060ff166001811115610f5557610f55612dec565b6001811115610f6657610f66612dec565b815260048201546020808301919091526005830154604080840191909152600684015460608401528051808201909152600784015481526008840154918101919091526080820152600982015460ff16151560a0820152600a9091015460c0909101529050600181606001516001811115610fe357610fe3612dec565b146110245760405162461bcd60e51b815260206004820152601160248201527015195b99195c881b9bdd0818db1bdcd959607a1b604482015260640161076a565b600084815260096020908152604080832086845290915290206002810154610100900460ff166110965760405162461bcd60e51b815260206004820152601f60248201527f57696e6e6572206f7220616c72656164792066756e642072657475726e656400604482015260640161076a565b60028101805461ff0019169055600381015460405160009133918381818185875af1925050503d80600081146110e8576040519150601f19603f3d011682016040523d82523d6000602084013e6110ed565b606091505b50509050806111335760405162461bcd60e51b8152602060048201526012602482015271199d5b99081c995d1d5c9b8819985a5b195960721b604482015260640161076a565b604051859087907fe33e136f29f6d5f0b5d1241bd898bbc6bdfa6b9e2b4a4f81ba72697de063d4be90600090a3505050505050565b8060008111801561117b57506003548111155b6111975760405162461bcd60e51b815260040161076a90612bf4565b6000828152600860205260409020600981015460ff16156111ea5760405162461bcd60e51b815260206004820152600d60248201526c15195b99195c881c185d5cd959609a1b604482015260640161076a565b80546111f7600182612006565b8160060154421161124a5760405162461bcd60e51b815260206004820152601a60248201527f566572696679696e6720706572696f64206e6f7420656e646564000000000000604482015260640161076a565b6000600383015460ff16600181111561126557611265612dec565b146112b25760405162461bcd60e51b815260206004820152601860248201527f57696e6e657220616c726561647920616e6e6f756e6365640000000000000000604482015260640161076a565b6003828101805460ff19166001179055600085815260096020908152604080832060078701548452909152902060028101805461ff0019169055600a84015491810154909161130091612d38565b600260008282546113119190612d38565b90915550506008830154600784015460405187907fade03acee65374dbd95af22f3c6a28938c228daa991c0f18db0c35d54ca5653590600090a45050505050565b60408051808201909152600080825260208201528160008111801561137957506003548111155b6113955760405162461bcd60e51b815260040161076a90612bf4565b600160008481526008602052604090206003015460ff1660018111156113bd576113bd612dec565b146114015760405162461bcd60e51b815260206004820152601460248201527315da5b9b995c881b9bdd08185b9b9bdd5b98d95960621b604482015260640161076a565b5050600090815260086020818152604092839020835180850190945260078101548452909101549082015290565b61143761256f565b611442600083612006565b6000838152600960209081526040808320858452825291829020825160a08101845281548152600182015492810192909252600280820154929391929184019160ff169081111561149557611495612dec565b60028111156114a6576114a6612dec565b81526002820154610100900460ff161515602082015260039091015460409091015290505b92915050565b600754604051635fe8c13b60e01b81526001600160a01b0390911690635fe8c13b90611507908790879087908790600401612af6565b60206040518083038186803b15801561151f57600080fd5b505afa158015611533573d6000803e3d6000fd5b505050506040513d601f19601f8201168201806040525081019061155791906127ad565b6115955760405162461bcd60e51b815260206004820152600f60248201526e141c9bdbd9881b9bdd081d985b1a59608a1b604482015260640161076a565b60208082015160408084015160608501516000848152600980875284822084835287528482208683526008909752939020928301549394919390929060ff16156115f15760405162461bcd60e51b815260040161076a90612bcc565b6000600382015460ff16600181111561160c5761160c612dec565b146116495760405162461bcd60e51b815260206004820152600d60248201526c15195b99195c8818db1bdcd959609a1b604482015260640161076a565b8060050154421161169c5760405162461bcd60e51b815260206004820152601d60248201527f566572696679696e6720706572696f64206e6f74207374617274656420000000604482015260640161076a565b85518254146116de5760405162461bcd60e51b815260206004820152600e60248201526d50726f6f66206e6f742073616d6560901b604482015260640161076a565b600160028084015460ff16908111156116f9576116f9612dec565b146117355760405162461bcd60e51b815260206004820152600c60248201526b189a5908191958db1a5b995960a21b604482015260640161076a565b60018201541561177a5760405162461bcd60e51b815260206004820152601060248201526f105b1c9958591e4815995c9a599a595960821b604482015260640161076a565b6001820183905560088101546117b0576040805180820190915284815260200183905260078101849055600881018390556117ed565b6008810154158015906117c65750600881015483105b156117ed576040805180820190915284815260200183905260078101849055600881018390555b604051849086907f624b91d29c06048694cd143e334c66343be8872bc48d8337c2893bf66f6402ce90600090a3505050505050505050565b6004546000906001600160a01b031633146118525760405162461bcd60e51b815260040161076a90612c1e565b5060025490565b6000818152600a60209081526040918290208054835181840281018401909452808452606093928301828280156118af57602002820191906000526020600020905b81548152602001906001019080831161189b575b50505050509050919050565b6000818152600b60209081526040918290208054835181840281018401909452808452606093928301828280156118af576020028201919060005260206000209081548152602001906001019080831161189b5750505050509050919050565b6004546001600160a01b031633146119455760405162461bcd60e51b815260040161076a90612c1e565b60ff8216158061195857508160ff166001145b6119a45760405162461bcd60e51b815260206004820152601f60248201527f4f20666f722062696420666565207c7c203120666f7220706f73742066656500604482015260640161076a565b60ff8216156119b8578060008190556119bf565b8060018190555b506040805160ff84168152602081018390527f25397e44e02ae24186a1b9fcb09478c593f6537d7a310fe519427f2cd71e2d90910160405180910390a15050565b6004546001600160a01b03163314611a2a5760405162461bcd60e51b815260040161076a90612c1e565b806002541015611a705760405162461bcd60e51b8152602060048201526011602482015270139bdd08195b9bdd59da081c1c9bd99a5d607a1b604482015260640161076a565b6002805482900390556004546040516000916001600160a01b03169083908381818185875af1925050503d8060008114611ac6576040519150601f19603f3d011682016040523d82523d6000602084013e611acb565b606091505b5050905080611b0f5760405162461bcd60e51b815260206004820152601060248201526f7769746864726177206661696c65642160801b604482015260640161076a565b5050565b82600081118015611b2657506003548111155b611b425760405162461bcd60e51b815260040161076a90612bf4565b6000600860008681526020019081526020016000206040518061014001604052908160008201548152602001600182018054611b7d90612d86565b80601f0160208091040260200160405190810160405280929190818152602001828054611ba990612d86565b8015611bf65780601f10611bcb57610100808354040283529160200191611bf6565b820191906000526020600020905b815481529060010190602001808311611bd957829003601f168201915b505050918352505060028201546020820152600382015460409091019060ff166001811115611c2757611c27612dec565b6001811115611c3857611c38612dec565b815260048201546020808301919091526005830154604080840191909152600684015460608401528051808201825260078501548152600885015481840152608084015260098085015460ff16151560a0850152600a9094015460c090930192909252835160008a8152938252828420898552909152912091925090611cbf600183612006565b82610100015115611ce25760405162461bcd60e51b815260040161076a90612bcc565b600083606001516001811115611cfa57611cfa612dec565b14611d375760405162461bcd60e51b815260206004820152600d60248201526c15195b99195c8818db1bdcd959609a1b604482015260640161076a565b428360a001511015611d7e5760405162461bcd60e51b815260206004820152601060248201526f1d995c9a599e5a5b99c81c195c9a5bd960821b604482015260640161076a565b848160020160006101000a81548160ff02191690836002811115611da457611da4612dec565b021790555085877f6dd8762bd697896b48f64bd7c5867a8607615a68c8f315fcb5c790ae495af2c587604051611dda9190612bbe565b60405180910390a350505050505050565b611df6600185612006565b6000543414611e405760405162461bcd60e51b815260206004820152601660248201527566656520213d20706f7374506c6174666f726d46656560501b604482015260640161076a565b60038054906000611e5083612dbb565b909155506000905042611e6484603c612d50565b611e6e9190612d38565b90506000611e7d83603c612d50565b611e879083612d38565b9050604051806101400160405280878152602001868152602001600354815260200160006001811115611ebc57611ebc612dec565b815260200142815260200183815260200182815260200160405180604001604052806000815260200160008152508152602001600015158152602001600054815250600860006003548152602001908152602001600020600082015181600001556020820151816001019080519060200190611f3992919061259b565b5060408201516002820155606082015160038201805460ff191660018381811115611f6657611f66612dec565b02179055506080820151600482015560a0820151600582015560c0820151600682015560e082015180516007830155602090810151600883015561010083015160098301805460ff191691151591909117905561012090920151600a90910155600354604051838152849289917f64cd927febea6e574aa2c3250c323b4266515d3cf83ae5d248f962da2449a88f910160405180910390a4505050505050565b60ff8216158061201957508160ff166001145b61202257600080fd5b60ff8216612287576006546040516331a9108f60e11b81526004810183905233916001600160a01b031690636352211e9060240160206040518083038186803b15801561206e57600080fd5b505afa158015612082573d6000803e3d6000fd5b505050506040513d601f19601f820116820180604052508101906120a6919061268c565b6001600160a01b0316148061213d575060065460405163020604bf60e21b81526004810183905233916001600160a01b03169063081812fc9060240160206040518083038186803b1580156120fa57600080fd5b505afa15801561210e573d6000803e3d6000fd5b505050506040513d601f19601f82011682018060405250810190612132919061268c565b6001600160a01b0316145b8061224457506006546040516331a9108f60e11b8152600481018390526001600160a01b039091169063e985e9c5908290636352211e9060240160206040518083038186803b15801561218f57600080fd5b505afa1580156121a3573d6000803e3d6000fd5b505050506040513d601f19601f820116820180604052508101906121c7919061268c565b6040516001600160e01b031960e084901b1681526001600160a01b03909116600482015233602482015260440160206040518083038186803b15801561220c57600080fd5b505afa158015612220573d6000803e3d6000fd5b505050506040513d601f19601f8201168201806040525081019061224491906127ad565b6122875760405162461bcd60e51b81526020600482015260146024820152734e6f7420616c6c6f77656420666f7220796f752160601b604482015260640161076a565b8160ff1660011415611b0f576005546040516331a9108f60e11b81526004810183905233916001600160a01b031690636352211e9060240160206040518083038186803b1580156122d757600080fd5b505afa1580156122eb573d6000803e3d6000fd5b505050506040513d601f19601f8201168201806040525081019061230f919061268c565b6001600160a01b031614806123a6575060055460405163020604bf60e21b81526004810183905233916001600160a01b03169063081812fc9060240160206040518083038186803b15801561236357600080fd5b505afa158015612377573d6000803e3d6000fd5b505050506040513d601f19601f8201168201806040525081019061239b919061268c565b6001600160a01b0316145b806124ad57506005546040516331a9108f60e11b8152600481018390526001600160a01b039091169063e985e9c5908290636352211e9060240160206040518083038186803b1580156123f857600080fd5b505afa15801561240c573d6000803e3d6000fd5b505050506040513d601f19601f82011682018060405250810190612430919061268c565b6040516001600160e01b031960e084901b1681526001600160a01b03909116600482015233602482015260440160206040518083038186803b15801561247557600080fd5b505afa158015612489573d6000803e3d6000fd5b505050506040513d601f19601f820116820180604052508101906124ad91906127ad565b611b0f5760405162461bcd60e51b81526020600482015260146024820152734e6f7420616c6c6f77656420666f7220796f752160601b604482015260640161076a565b6040518061014001604052806000815260200160608152602001600081526020016000600181111561252457612524612dec565b815260200160008152602001600081526020016000815260200161255b604051806040016040528060008152602001600081525090565b815260006020820181905260409091015290565b6040518060a0016040528060008152602001600081526020016000600281111561255b5761255b612dec565b8280546125a790612d86565b90600052602060002090601f0160209004810192826125c9576000855561260f565b82601f106125e257805160ff191683800117855561260f565b8280016001018555821561260f579182015b8281111561260f5782518255916020019190600101906125f4565b5061261b92915061261f565b5090565b5b8082111561261b5760008155600101612620565b600082601f83011261264557600080fd5b61264d612cbb565b80838560408601111561265f57600080fd5b60005b6002811015612681578135845260209384019390910190600101612662565b509095945050505050565b60006020828403121561269e57600080fd5b81516001600160a01b03811681146126b557600080fd5b9392505050565b6000806000806101808086880312156126d457600080fd5b6126de8787612634565b9450604087605f8801126126f157600080fd5b6126f9612cbb565b8082890160c08a018b81111561270e57600080fd5b60005b6002811015612738576127248d84612634565b855260209094019391850191600101612711565b508298506127468c82612634565b975050505050508661011f87011261275d57600080fd5b612765612ce4565b80610100880189848a01111561277a57600080fd5b600093505b600484101561279f5780358352600193909301926020928301920161277f565b509598949750929550505050565b6000602082840312156127bf57600080fd5b815180151581146126b557600080fd5b6000602082840312156127e157600080fd5b5035919050565b600080600080608085870312156127fe57600080fd5b8435935060208086013567ffffffffffffffff8082111561281e57600080fd5b818801915088601f83011261283257600080fd5b81358181111561284457612844612e18565b612856601f8201601f19168501612d07565b9150808252898482850101111561286c57600080fd5b80848401858401376000908201909301929092525093969395505050506040820135916060013590565b600080604083850312156128a957600080fd5b50508035926020909101359150565b6000806000606084860312156128cd57600080fd5b83359250602084013591506040840135600381106128ea57600080fd5b809150509250925092565b60008060006060848603121561290a57600080fd5b505081359360208301359350604090920135919050565b6000806040838503121561293457600080fd5b823560ff8116811461294557600080fd5b946020939093013593505050565b8060005b6002811015612976578151845260209384019390910190600101612957565b50505050565b6002811061298c5761298c612dec565b9052565b6003811061298c5761298c612dec565b6000815180845260005b818110156129c6576020818501810151868301820152016129aa565b818111156129d8576000602083870101525b50601f01601f19169290920160200192915050565b6000610160825184526020830151816020860152612a0d828601826129a0565b915050604083015160408501526060830151612a2c606086018261297c565b506080830151608085015260a083015160a085015260c083015160c085015260e0830151612a6760e086018280518252602090810151910152565b50610100830151610120612a7e8187018315159052565b8085015161014087015250508091505092915050565b6000602080830181845280855180835260408601915060408160051b870101925083870160005b82811015612ae957603f19888603018452612ad78583516129ed565b94509285019290850190600101612abb565b5092979650505050505050565b6101808101612b058287612953565b60408083018660005b6002811015612b3557612b22838351612953565b9183019160209190910190600101612b0e565b50505050612b4660c0830185612953565b61010082018360005b6004811015612b6e578151835260209283019290910190600101612b4f565b50505095945050505050565b6020808252825182820181905260009190848201906040850190845b81811015612bb257835183529284019291840191600101612b96565b50909695505050505050565b602081016114cb8284612990565b6020808252600e908201526d54656e646572207061757365642160901b604082015260600190565b60208082526010908201526f1d195b99195c881b9bdd08199bdd5b9960821b604082015260600190565b60208082526014908201527327b7363c9031b0b63632b210313c9037bbb732b960611b604082015260600190565b600060a08201905082518252602083015160208301526040830151612c746040840182612990565b506060830151151560608301526080830151608083015292915050565b6020815260006126b560208301846129ed565b8151815260208083015190820152604081016114cb565b6040805190810167ffffffffffffffff81118282101715612cde57612cde612e18565b60405290565b6040516080810167ffffffffffffffff81118282101715612cde57612cde612e18565b604051601f8201601f1916810167ffffffffffffffff81118282101715612d3057612d30612e18565b604052919050565b60008219821115612d4b57612d4b612dd6565b500190565b6000816000190483118215151615612d6a57612d6a612dd6565b500290565b600082821015612d8157612d81612dd6565b500390565b600181811c90821680612d9a57607f821691505b6020821081141561073557634e487b7160e01b600052602260045260246000fd5b6000600019821415612dcf57612dcf612dd6565b5060010190565b634e487b7160e01b600052601160045260246000fd5b634e487b7160e01b600052602160045260246000fd5b634e487b7160e01b600052603260045260246000fd5b634e487b7160e01b600052604160045260246000fdfea264697066735822122049ae6acf76ece315a27c94f6692be5f665ab725412432cf9786165c6e548863f64736f6c63430008070033",
    "linkReferences": {}
  },
  "methodIdentifiers": {
    "announceWinner(uint256)": "3a6e157b",
    "approveOrDeclineBid(uint256,uint256,uint8)": "da7371bc",
    "bid(uint256,uint256,uint256)": "2ac9bf09",
    "bidPlatformFee()": "29411b75",
    "createNewTender(uint256,string,uint256,uint256)": "f221d9e0",
    "getAllTenders()": "2358c046",
    "getAllYourBids(uint256)": "9b1e604b",
    "getListOfbidders(uint256)": "910c66cd",
    "getProfitGenerated()": "7a45b791",
    "getTender(uint256)": "0585c25e",
    "getWinner(uint256)": "4129b2c9",
    "getYourBid(uint256,uint256)": "629b3d8e",
    "owner()": "8da5cb5b",
    "pauseTender(uint256)": "287ccb8b",
    "postPlatformFee()": "06e924b8",
    "restartTender(uint256,uint256,uint256)": "2a182929",
    "returnFunds(uint256,uint256)": "37cd2f7e",
    "updatePlatformFee(uint8,uint256)": "a2b26b70",
    "verifyBid(uint256[2],uint256[2][2],uint256[2],uint256[4])": "73322c5f",
    "withdrawProfit(uint256)": "d82a2bea"
  },
  "id": 22
}